:020000040800F2
:10000000A80B00202D020008BB2500082B200008AB
:10001000B9250008470400086D2E00080000000004
:10002000000000000000000000000000C1250008E2
:100030000505000800000000BF250008C3250008D2
:10004000470200084702000847020008470200086C
:10005000470200084702000847020008470200085C
:10006000470200084702000847020008470200084C
:10007000470200084702000847020008470200083C
:10008000470200084702000847020008470200082C
:10009000470200084702000847020008470200081C
:1000A000470200084702000847020008470200080C
:1000B000470200086D2600084702000847020008B2
:1000C00047020008470200084702000847020008EC
:1000D00047020008612E0008470200084702000896
:1000E00047020008470200084702000847020008CC
:1000F00047020008470200084702000847020008BC
:100100004702000847020008792600084702000855
:10011000470200084702000847020008470200089B
:100120004702000847020008490400084702000887
:10013000470200084702000847020008470200087B
:10014000470200084702000847020008470200086B
:10015000470200084702000855040008470200084B
:10016000470200084702000847020008470200084B
:10017000470200084702000847020008000000008C
:10018000470200084702000800F002F800F03EF8BD
:100190000AA090E8000C82448344AAF10107DA45E2
:1001A00001D100F033F8AFF2090EBAE80F0013F0F6
:1001B000010F18BFFB1A43F001031847642E00001B
:1001C000842E0000103A24BF78C878C1FAD85207AC
:1001D00024BF30C830C144BF04680C6070470000C1
:1001E0000023002400250026103A28BF78C1FBD840
:1001F000520728BF30C148BF0B6070471FB502F0DF
:10020000FAFE00F0D5F81FBD10B510BD00F0E2F801
:100210001146FFF7F3FF02F0CFFE00F000F903B440
:10022000FFF7F2FF03BC00F007F900000948804720
:1002300009480047FEE7FEE7FEE7FEE7FEE7FEE7C8
:10024000FEE7FEE7FEE7FEE704480549054A064BE0
:10025000704700005D26000889010008A8050020FD
:10026000A80B0020A8070020A807002053EA020CD2
:1002700000F069802DE9F04B4FF00006002B1FBF06
:10028000B3FA83F503FA05F424FA05F65E4012BFCB
:100290001643B2FA82F502FA05F4C5F120051EBF35
:1002A00022FA05FC44EA0C04203556EA044C4FEAD5
:1002B000144418BF641C4FF000084FF0000990422E
:1002C00071EB030C39D3002919BFB1FA81F701FA98
:1002D00007F6B0FA80F700FA07F6C7F120071EBF4D
:1002E00020FA07FC46EA0C062037B6FBF4FCA7EB25
:1002F0000507103F07F01F0BCBF120060CFA0BFB94
:100300002CFA06F644BFB3460026202FA4BF5E4653
:100310004FF0000B5BEA060C08BF4FF0010B19EB26
:100320000B09ABFB027C48EB0608C01B06FB02CCAA
:100330000BFB03CC71EB0C01C1E70B4602464146B7
:100340004846BDE8F08B13B54FF000004FF00001B8
:10035000AFF30080BDE81C4070474FF0000200B5CD
:10036000134694469646203922BFA0E80C50A0E8D8
:100370000C50B1F12001BFF4F7AF090728BFA0E886
:100380000C5048BF0CC05DF804EB890028BF40F852
:10039000042B08BF704748BF20F8022B11F0804F94
:1003A00018BF00F8012B7047704770477047000076
:1003B00070B5064C7C44064D7D4403E02068204423
:1003C0008047241DAC42F9D170BD0000882C00008C
:1003D000882C0000754600F02BF8AE4605006946F3
:1003E000534620F00700854618B020B5FFF72CFFD4
:1003F000BDE820404FF000064FF000074FF0000826
:100400004FF0000B21F00701AC46ACE8C009ACE8A6
:10041000C009ACE8C009ACE8C0098D46704710B50A
:100420000446AFF300802046BDE81040FFF7F7BE5A
:10043000004870474405002001491820ABBEFEE784
:10044000260002007047FEE7014800F0B9B800003E
:10045000FC020020014800F0B3B800005C0300205B
:1004600001681823CAB2103AB2FBF3F2054B6FF3DE
:100470000901032A9B5CC36500D9091D81650846F3
:10048000704700000030000810B5014600208B695D
:100490008A6A4FF0C07453B1B3F5005F15D072B1E2
:1004A000012A0CD0022A0AD0032A09D104E01AB189
:1004B000012A06D0022A03D1C96AC90100D5012048
:1004C00010BDC96AA142FAD010BD002AF7D0012A96
:1004D000F2D0022AF3D0032AF3D010BD30B504685D
:1004E000256825F480252560046863608368402BB7
:1004F000036803D099600068C26030BD9A600068EC
:10050000C16030BD704772B6FEE72DE9F041044688
:10051000876D00F0BFFA064694F8350000250228E2
:1005200006D08020606584F834500120BDE8F08159
:100530002068016821F0160101602068416921F0FE
:1005400080014161206C08B9A06C20B1206801686D
:1005500021F0080101602068016821F001010160BB
:100560000CE000F097FA801B052807D92020606571
:10057000032084F8350084F83450D7E720680068F9
:10058000C007EED194F85C103F208840B86001208D
:1005900084F8350084F834500020C7E790F835100F
:1005A000022903D08021416501207047052180F890
:1005B00035100068016821F00101016000207047DA
:1005C0002DE9F84304464FF00009CDF80090634848
:1005D0004FF41651A56D0068B0FBF1F72E6894F842
:1005E0005C10082000FA01F131420FD021680A683E
:1005F00052070BD50A6822F004020A6094F85C10D6
:100600008840A860606D40F00100606594F85C105F
:100610004FF0010808FA01F0304208D0216849691A
:10062000090604D5A860606D40F00200606594F88A
:100630005C1004208840304208D02168096889078E
:1006400004D5A860606D40F00400606594F85C100B
:1006500010208840304218D021680968090714D555
:10066000A86020680168490304D50068000308D524
:10067000A16C07E00168C90503D4016821F00801F5
:100680000160216C09B12046884794F85C10202055
:100690008840304231D021680968C9062DD5A8604C
:1006A00094F8350005282068016806D0490347D52D
:1006B000006800031DD4616C1CE021F0160101608C
:1006C0002068416921F080014161206C08B9A06C6B
:1006D00020B12068016821F00801016094F85C10E5
:1006E0003F208840A86084F8358084F83490216DDC
:1006F0001FE0E16B09B120468847606D00282BD0D0
:10070000606DC00714D0052084F8350020680168AA
:1007100021F0010101600098401C0090B84203D80C
:1007200020680068C007F6D184F8358084F83490DA
:10073000E16C002910D001B02046BDE8F043084725
:100740000168C905D5D4016821F01001016084F861
:10075000358084F83490CCE7BDE8F8830C000020A5
:100760002DE9F041044600F095F906465CB10220FF
:1007700084F83500002584F834502068016821F0A1
:10078000010101600DE00120BDE8F08100F082F977
:10079000801B052805D920206065032084F83500DA
:1007A000F2E720680068C007F0D12268116820488D
:1007B0000140D4E901031843D4E903363343184315
:1007C00063691843A3691843E3691843236A18430C
:1007D0000843616A042903D1D4E90B131943084380
:1007E000106020684069666A20F0070130460E43B9
:1007F000012704280CD1A06A0643E06A40B12046D4
:10080000FFF742FE20B14020606584F83570BAE7FA
:10081000206846612046FFF723FE94F85C203F21C4
:1008200091408160656584F835700020ACE7000078
:100830003F8010F02DE9F0410446866D90F83400B9
:10084000002501280DD0012084F8340094F835707B
:100850000020012F07D084F8340002252846BDE887
:10086000F0810220FBE7022784F83570606520469E
:10087000FFF734FE94F85C103F208840B060206899
:10088000016841F016010160206C20B12068016808
:1008900041F0080101602068016841F00101016038
:1008A000DCE700002DE9F84FDFF8BCA100220125AC
:1008B00003264FF00F090AF1040BAAF1040E00BF42
:1008C0000B6805FA02F42340A34270D10F7907F0B8
:1008D0000307012F01D0022F16D187684FEA420883
:1008E00006FA08FC27EA0C07D1F80CC00CFA08FC41
:1008F0004CEA070CC0F808C04768A7430C79C4F35A
:10090000001494403C4344600C79E443A4070AD0AB
:10091000C4684FEA420C06FA0CF7BC438F6807FA2A
:100920000CF72743C7600C7904F00304022C12D1A2
:10093000D40800EB840CDCF820405707FF0E09FABE
:1009400007F824EA0804D1F8108008FA07F848EA02
:100950000408CCF8208004684FEA420C06FA0CF731
:10096000BC430F7907F0030707FA0CF7274307602A
:100970004C6814F4403F70D03C4C276847F48047E3
:100980002760246822F0030704F480440094384C64
:1009900007EB040CDCF8084897074FEA177809FAC8
:1009A00008F7BC43334FB84202D1002724E054E09B
:1009B000314FB84201D101271EE0304FB84201D17A
:1009C000022719E02E4FB84201D1032714E02D4F22
:1009D000B84201D104270FE02B4FB84201D10527BF
:1009E0000AE02A4FB84201D1062705E0284FB84255
:1009F00001D1072700E0082707FA08F72743CCF8BA
:100A00000878DAF800405746D1F804C09C435FEA02
:100A1000CC2C00D51C433C60DBF800405F46D1F88D
:100A200004C09C435FEA8C2C00D51C433C60DEF87C
:100A300000407746D1F804C09C435FEA8C3C00D567
:100A40001C433C60084F083F3C68D1F804C09C43FD
:100A50005FEACC3C00D51C433C60521C102AFFF4DA
:100A60002FAFBDE8F88F0000083C01404438024039
:100A70000030014000000240000402400008024033
:100A8000000C024000100240001402400018024016
:100A9000001C0240014880687047000000000020F0
:100AA000024881680278114481607047000000208C
:100AB0000B4810B5016841F400710160016841F410
:100AC00080610160016841F480710160032000F0E1
:100AD0006FF80F2000F006F800F024F8002010BD99
:100AE000003C024070B50D4D04464FF47A712878F1
:100AF000B1FBF0F00A490968B1FBF0F000F00CFB23
:100B000048B9102C07D200222146501E00F030F8C0
:100B100000206C6070BD012070BD0000000000204E
:100B20000C0000200A4808B5016841F480410160CA
:100B3000006800F4804000900548001F016841F003
:100B400080510160006800F08050009008BD0000F6
:100B500044380240002809DB00F01F0201219140C7
:100B60004009800000F1E020C0F80011704700004B
:100B7000F0B40E4B1B680C46C3F30223C3F1070508
:100B8000042D00D90425191D072901D2002300E0F6
:100B9000DB1E012606FA05F1491E214099409E40C0
:100BA000761E16403143F0BC02F0C7B90CED00E0F0
:100BB000064900F0070208684FF6FF03184040EAB4
:100BC0000220034A10430860704700000CED00E06B
:100BD0000000FA052DE9F0470E46050065D0DFF864
:100BE0001481D8F80000F7B200F00700B04207D235
:100BF00088F80070D8F8000000F00700B04254D127
:100C000028683D4C810712D5400703D5206840F481
:100C1000E05020602878000703D5206840F4604049
:100C200020602068A96820F0F00008432060287840
:100C3000C0072DD0304968680839012812D0022831
:100C400013D0032811D00968890700292DDA2168FB
:100C500021F0030101432160FFF71CFF814641F2AF
:100C6000883A0EE009688903EFE709688901ECE733
:100C7000FFF710FFA0EB0901514502D90320BDE8A1
:100C8000F0872068696800F00C00B0EB810FEFD1AD
:100C9000D8F80010404601F00701B14207D90770AB
:100CA000006800F00700B04201D00120E7E7287893
:100CB000400705D52068E96820F4E050084320602B
:100CC0002878000706D52068296920F4604040EAAA
:100CD000C100206000F038F82168084AC1F3031110
:100CE000515CC8400649086006480068FFF7FAFEF4
:100CF0000020C4E7003C02400838024008300008E9
:100D00000C00002004000020044805490068096820
:100D1000044AC1F38221515CC84070470C00002096
:100D2000083802401830000804480549006809687E
:100D3000044AC1F34231515CC84070470C000020A6
:100D40000838024018300008154810B5006810F047
:100D50000C02144813D01449042A0FD0082A0ED1CB
:100D60000F4C241F2268236802F03F025B0207D564
:100D70002068C0F38810A0FB010106E0084610BD02
:100D80002168C1F38811A1FB00010023FFF76EFA6F
:100D90002168C1F30141491C4900B0FBF1F010BDCD
:100DA000083802400024F40040787D012DE9F84F16
:100DB00004006ED02078DFF84C93C007A9F1040539
:100DC0004AD009F104000168C1F38101012908D06A
:100DD0000068C0F3810002280AD1D9F8000040025F
:100DE00006D52868800337D560680028E1D033E055
:100DF0006068B0F5803F10D0B0F5A02F286810D003
:100E000020F480302860286820F480202860606802
:100E1000A8B1FFF73FFE06460DE0286840F4803099
:100E2000F4E740F480202860F7E700BFFFF732FEC8
:100E3000801B642873D828688003F7D50CE0FFF77F
:100E400029FE064605E000BFFFF724FE801B64284C
:100E5000F0D828688003F7D42078DFF8AC828007C8
:100E60004FF0000A3ED5A748001D016811F00C0F95
:100E700008D00068C0F3810002280BD1D9F8000027
:100E8000400207D42868800716D5E068012800D101
:100E900012E033E1E068B8B10120C8F80000FFF7C4
:100EA000F9FD064605E000BFFFF7F4FD801B0228B0
:100EB000C0D828688007F7D52868216920F0F80095
:100EC00040EAC10028600DE0C8F800A0FFF7E2FD8D
:100ED000064604E0FFF7DEFD801B02281FD82868C5
:100EE0008007F7D42078000722D5864F87486169AC
:100EF000703771B101210160FFF7CCFD064604E0B7
:100F0000FFF7C8FD801B022809D838688007F7D58D
:100F10000EE0C0F800A0FFF7BDFD064605E082E048
:100F2000FFF7B8FD801B02287DD838688007F7D40A
:100F30002078400768D5DFF8CCB100270BF13C0BD7
:100F4000DBF80000C0000BD4DBF8001041F080514A
:100F5000CBF80010DBF80000012700F08050009073
:100F60006B4E3068C00510D4306840F4807030603B
:100F7000FFF790FD009005E0FFF78CFD0099401A07
:100F8000022850D83068C005F6D55E4EA0686C3691
:100F900001280FD00528306810D020F00100306003
:100FA000306820F004003060A068B8B1FFF772FD2F
:100FB00000900FE0306840F00100F4E740F00400DA
:100FC0003060F7E7FFF766FD0099411A41F288307B
:100FD000814266D830688007F4D50EE0FFF75AFDED
:100FE000009007E0FFF756FD0099411A41F2883062
:100FF000814256D830688007F4D42FB1DBF8001056
:1010000021F08051CBF80010A069C8B33D49091DFB
:101010000968C1F3810102294AD00228504607D04D
:10102000C8F8600000E03CE0FFF734FD04463BE018
:101030004746C8F86000FFF72DFD064605E000BFF3
:10104000FFF728FD801B02282BD828688001F7D4E1
:10105000D4E907010843A16A2E4A490802EB01417D
:10106000626A41EA8211084394F82C1040EA016157
:10107000C9F8001001203866FFF70CFD044606E0B1
:101080003EE000BFFFF706FD001B022809D82868D4
:101090008001F7D534E000BFFFF7FCFC001B0228FD
:1010A00002D90320BDE8F88F28688001F4D427E036
:1010B0000128F7D0D9F80000E26900F480019142DC
:1010C0001CD1226A00F03F01914217D147F6C0714E
:1010D000626A0140B1EB821F10D1A26A4FF0FF3368
:1010E00000F4403103EB5202B1EB024F06D194F809
:1010F0002C1000F07060B0EB016F01D00120D1E73F
:101100000020CFE70438024000004742800E4742EB
:10111000007000400000FFFF10B5401EB0F1807F5E
:1011200001D3012010BD4FF0E02460610F21601752
:1011300001F003FF0020A06107202061002010BD06
:101140007047704770B590F83C20012A32D00124D6
:1011500080F83C40022280F83D2003685A689D6870
:1011600022F070060A6832435A60134B02689A42B2
:1011700014D0B2F1804F11D0104B9A420ED0104BC8
:101180009A420BD00F4B9A4208D00F4B9A4205D08F
:101190000E4B9A4202D00E4B9A4204D1496825F078
:1011A00080031943916080F83D40002180F83C1095
:1011B000084670BD022070BD0000014000040040E0
:1011C00000080040000C00400004014000400140C5
:1011D0000018004010B5040003D094F83D0010B191
:1011E00007E0012010BD002084F83C00204600F0FC
:1011F0001FF8022084F83D00211D206801F042FA0A
:10120000012084F8460084F83E0084F83F0084F80A
:10121000400084F8410084F8420084F8430084F8D8
:10122000440084F8450084F83D00002010BD000013
:1012300008B5264A0168264891420ED1016841F05E
:10124000020101600068002200F0020000901146D7
:101250001D20FFF78DFC1D2010E01E4A914211D188
:10126000016841F0080101600068002200F00800F8
:10127000009011463220FFF77BFC3220BDE8084089
:10128000FFF768BC124A144B121D994207D110682F
:1012900040F480301060106800F4803009E00F4B9B
:1012A000994208D1106840F480201060106800F462
:1012B0008020009008BD0A4A9142FBD1016841F0AC
:1012C00040010160006800F04000F2E700040040C7
:1012D00040380240000C00400040014000480140FE
:1012E0000018004090F83D10012901D001207047FE
:1012F000022180F83D100168CA6842F00102CA600C
:1013000000681149884214D0B0F1804F11D00F49C4
:1013100088420ED00E4988420BD00E49884208D030
:101320000D49884205D00D49884202D00C498842B7
:1013300004D1816801F00701062903D0016841F05A
:1013400001010160002070470000014000040040DE
:1013500000080040000C0040000401400040014033
:101360000018004070B5044690F83C0000250128A4
:1013700017D0012684F83C60022084F83D002068E4
:10138000826822F0770222F47F4282600868502847
:1013900038D00DDC20284FD005DC90B3102811D1B7
:1013A0004AE0022070BD302846D040280AD13BE0F8
:1013B00060282FD070280DD0B0F5805F03D0B0F535
:1013C000005F12D0012584F83D60002084F83C00C5
:1013D000284670BDCB68D1E90121206801F0CBF926
:1013E0002068816841F0770109E0CB68D1E90121EB
:1013F000206801F0C0F92068816841F48041816073
:10140000E1E719E0CA684968206801F09DFA5021B7
:10141000206806E0CA684968206801F0A6FA6021E1
:10142000206801F0B2F9CEE7CA684968206801F087
:101430008BFA40212068F4E7226801461046F0E765
:101440002DE9F0410D46040003D094F83D0018B199
:1014500008E00120BDE8F081002084F83C0020462F
:1014600000F040F8022084F83D002068816844F2D2
:10147000070291438160211D206801F003F9226871
:1014800090689169166A2B68AF69034340F2033094
:10149000814341EA0721A868EF6908434FF6FC4100
:1014A0008843E96840EA0720014328692F6A000160
:1014B00040EA0730084369686D6926F0AA0646EAE3
:1014C0000515294393602268906154F8460B016228
:1014D000012004F81F09E0752076E0762077A075DA
:1014E0000020B7E770B586B0044614216846FEF7C1
:1014F00034FF25683F483E4C00213E4A1438022301
:101500000126A54219D1146844F001041460126840
:1015100002F001020592026842F0100202600068C7
:1015200000F0100005904FF420600090CDE90131EB
:10153000CDE903166946304839E02E4C241FB5F139
:10154000804F1CD02D4EB54235D1226842F00402A6
:101550002260226802F004020592026842F008024A
:101560000260006800F0080005904FF440500090C1
:10157000CDE90131CDE903136946214817E022681E
:1015800042F001022260226802F001020592026824
:1015900042F001020260006800F001000590222084
:1015A0000090CDE90131CDE9031669461548FFF7F2
:1015B00079F906B070BD144CA542FAD1146844F014
:1015C00002041460126802F002020592026842F0FE
:1015D00004020260006800F004000590C020009042
:1015E000CDE901310320CDE9031069460748DEE764
:1015F0000000014044380240001002400008004052
:10160000000C0240000002400004014000080240BB
:1016100070B590F83E60044690F83F5090F8423024
:1016200090F84320022021B104290ED0012E1BD1B5
:1016300014E0012E18D1012B16D184F83E0084F855
:10164000420001220021206820E0012D0CD1012A56
:101650000AD184F83F0084F8430014E0012D03D13F
:10166000012B01D1012A01D0012070BD84F83E0078
:1016700084F83F0084F8420084F8430001220021EE
:10168000206801F06BF801220421206801F066F85F
:101690002068016841F001010160002070BD7047C1
:1016A0002DE9F04104460068C66805694FF000075F
:1016B000A90713D5B10711D5F91E016101202077C3
:1016C000206880698007204602D0FFF7E8FF04E029
:1016D00000F03FF9204600F0FFF92777680716D59C
:1016E000700714D521686FF004000861022020778C
:1016F0002068806910F4407F204602D0FFF7CFFFBA
:1017000004E000F026F9204600F0E6F927772807E4
:1017100015D5300713D521686FF008000861042043
:1017200020772068C0698007204602D0FFF7B7FF06
:1017300004E000F00EF9204600F0CEF92777E80625
:1017400016D5F00614D521686FF010000861082046
:1017500020772068C06910F4407F204602D0FFF750
:101760009EFF04E000F0F5F8204600F0B5F9277779
:10177000E80708D0F00706D021686FF00100086183
:10178000204600F00FFA280608D5300606D5216855
:101790006FF0800008612046FFF7D2FC680608D58C
:1017A000700606D521686FF040000861204600F001
:1017B0000DFAA8060AD5B00608D521686FF02000FA
:1017C00008612046BDE8F041FFF7BBBCBDE8F081F1
:1017D000F0B587B0044614216846FEF7BEFD3F4BC6
:1017E000216800243E4802253E4A03263E4F994286
:1017F00021D1016841F001010160016801F001019E
:101800000591016841F0020101600068694600F03D
:101810000200059040200090CDE901541046CDE92A
:101820000345FFF73FF80096CDE901546946384675
:10183000CDE9034513E0DFF8B4C00923614512D1B7
:10184000016841F00101016000680093CDE9015495
:1018500000F00100CDE90450694603941046FFF7FB
:1018600021F807B0F0BD224A91420ED1016841F043
:10187000100101600068694600F0100005906020CA
:101880000090CDE901541B4810E01B4A914210D151
:10189000016841F0020101600068694600F0020041
:1018A000059050150090CDE901543846CDE9034626
:1018B000D5E7124A9142D4D1016841F0020101609A
:1018C0000068694600F002000590D0000090CDE964
:1018D0000154CDE903433846C1E70000000400404D
:1018E000303802400000024000040240000C00407A
:1018F0000040014000100240004801400018004034
:1019000070B5044690F83C00002501280FD0012056
:1019100084F83C006AB1042A0FD0082A11D00C2A9E
:1019200013D00125002084F83C00284670BD022019
:1019300070BD206800F046FFF4E7206800F072FFF9
:10194000F0E7206800F0A4FFECE7206800F0D4FF87
:10195000E8E7704710B5040003D094F83D0010B1DB
:1019600007E0012010BD002084F83C00204600F074
:101970001EF8022084F83D00211D206800F082FE40
:10198000012084F8460084F83E0084F83F0084F883
:10199000400084F8410084F8420084F8430084F851
:1019A000440084F8450084F83D00002010BD7047D5
:1019B00070B5044690F83C0000260D4601280FD073
:1019C000012084F83C006AB1042A1DD0082A2FD0D7
:1019D0000C2A3FD00126002084F83C00304670BD20
:1019E000022070BD206800F0EDFE2068816941F0A2
:1019F000080181612068816921F00401816120680A
:101A000081692A69114311E0206800F00BFF20680A
:101A1000816941F4006181612068816921F48061FC
:101A20008161206881692A6941EA02218161D2E7E6
:101A3000206800F02DFF2068C16941F00801C161F4
:101A40002068C16921F00401C1612068C1692A6967
:101A5000114311E0206800F04FFF2068C16941F494
:101A60000061C1612068C16921F48061C1612068A1
:101A7000C1692A6941EA0221C161ACE710B50400DD
:101A800003D094F83D0010B107E0012010BD002004
:101A900084F83C00204600F01EF8022084F83D0047
:101AA000211D206800F0EEFD012084F8460084F836
:101AB0003E0084F83F0084F8400084F8410084F838
:101AC000420084F8430084F8440084F8450084F818
:101AD0003D00002010BD70477047000010B504465F
:101AE000022249B104290ED0082913D094F84100EC
:101AF000012816D0012010BD94F83E000128F9D12C
:101B000084F83E200FE094F83F000128F2D184F8D9
:101B10003F2008E094F840000128EBD184F84020F1
:101B200001E084F841200122206800F017FE1649E8
:101B30002068164A884201D0904203D1436C43F496
:101B4000004343642068884213D0B0F1804F10D026
:101B50000F4988420DD00F4988420AD00E49884269
:101B600007D0904205D00D49884202D00C498842E6
:101B700004D1816801F00701062903D0016841F012
:101B800001010160002010BD00000140000401407F
:101B90000004004000080040000C004000400140EC
:101BA0000018004000680649884201D1054804E059
:101BB0000549884203D10348083040680047704710
:101BC0000004004010000020000C0040704738B5B1
:101BD000044690F84200202801D0022038BD61B1AF
:101BE0005AB10120206300206063204601F0F0F824
:101BF0000028F3D1216B012901D0012038BD2168D3
:101C00000A684968009121680C3151E8002F42F0C0
:101C1000100241E80023002BF5D138BD70B5054610
:101C200000680D4A904215D10C4C04F18400A4F8D0
:101C30000811D4F80C21064604F5827490472288D6
:101C400031462846FFF7C3FF05480068016821F0C8
:101C50000801016070BD000000100140BC030020BD
:101C6000FC02002070470000F8B5016804460868CF
:101C7000CA684B6910F00F0F4FF0000559D003F000
:101C8000010602F49077374365D0C10705D0D1052E
:101C900003D5616C41F001016164410705D5D907A5
:101CA00003D0616C41F002016164810705D5D90759
:101CB00003D0616C41F004016164010707D502F0B3
:101CC0002001314303D0616C41F008016164616C13
:101CD00000293AD0800604D5900602D5204600F0AF
:101CE0008FFF20684069616CC0F38010090700D441
:101CF00060B3204600F033FF20684069400621D5DC
:101D00002068143050E8001F21F0400140E8001224
:101D1000002AF5D1E06BA8B16E490165E06BFEF7D2
:101D20003DFC002811D0E06B016D01B0BDE8F04032
:101D3000084783060FD593060DD52046BDE8F84029
:101D400000F05EBF2046FFF78DFFF8BD2046FFF78D
:101D500089FF6564F8BD266B2023012E7DD1C60660
:101D60007BD5D60679D508684868009048694FF059
:101D70000206400641D5E16B086840680004000C8B
:101D8000E8D0A28D8242E5D9E085C869B0F5807FB0
:101D90002DD020680C3050E8001F21F4807140E8FD
:101DA0000012002AF5D12068143050E8001F21F0FD
:101DB000010140E80012002AF5D12068143050E8F3
:101DC000001F21F0400140E80012002AF5D184F8FC
:101DD0004230256320680C3050E8001F21F01001CC
:101DE00040E80012002AF5D1E06BFEF78EFB666337
:101DF000A08DE18D401A81B22AE0A08DE18D401ABC
:101E000081B2E08D0028A5D00029A3D022680C3231
:101E100052E8000F20F4907042E80007002FF5D13F
:101E20002068143050E8002F22F0010240E800271B
:101E3000002FF5D184F84230256320680C3050E83B
:101E4000002F22F0100240E80023002BF5D166633A
:101E50002046FFF7E3FEF8BDFFE705062BD5150684
:101E600029D594F841002128F5D1A068B0F5805F0C
:101E700001D12069B0B1206A411C2162216800783B
:101E80004860E08C401E0004000CE084E3D1206830
:101E9000C16821F08001C1602068C16841F0400143
:101EA000C160D8E7206A0088C0F308004860206A53
:101EB000801C2062E5E74006CDD55006CBD5CA6828
:101EC000204622F04002CA6084F8413000F0ACF8AD
:101ED000C1E70000612A000870B5040004D094F83E
:101EE0004100002510B106E0012070BD84F840508B
:101EF000204600F023F8242084F841002068C168BF
:101F000021F40051C160204600F0DCFE2068016928
:101F100021F4904101612068416921F02A01416169
:101F20002068C16841F40051C1606564202084F8D4
:101F3000410084F842006563002070BD2DE9F04146
:101F400086B0064614216846FEF707FA3049306825
:101F5000884259D12F480024016841F010010160E6
:101F6000006800F0100005902A481438016841F01C
:101F7000010101600068694600F0010005904FF41E
:101F8000C06000900220CDE90104032003900720E7
:101F900004902148FEF786FC214D20484FF0006751
:101FA0002860C5E901744FF48068C5E903486C6195
:101FB000AC61EC612C6228466C62FEF7D1FB08B183
:101FC000FEF7A1FAF563AE63154D1448603578301D
:101FD000E5E802074020A5E81101114845F8144939
:101FE0006030AC61EC612C626C62FEF7B9FB08B149
:101FF000FEF789FAB563002211462520AE63FEF78D
:10200000B7FD2520FEF7A6FD06B0BDE8F081000073
:102010000010014044380240000002404064024089
:10202000FC020020704770477047FEE70D4808B576
:10203000016841F4800101600068002200F4800022
:10204000009011463A20FEF793FD3A20FEF782FDFC
:10205000002211464620FEF78BFDBDE808404620D1
:10206000FEF778BD30380240194808B5016841F0E4
:1020700010010160016801F010010091016841F058
:1020800080010160016801F080010091016841F068
:1020900001010160016801F001010091016841F056
:1020A00002010160016801F002010091016841F044
:1020B00008010160016801F008010091016841F028
:1020C00004010160006800F00400009008BD0000F9
:1020D0003038024010B588B01C216846FEF73DF943
:1020E00015481449002401605321C0E9011440F24D
:1020F000E731C0E903148461FFF76CF808B1FEF71B
:1021000002FA0D48FFF7BAFC08B1FEF7FCF96020AF
:10211000CDE9000402940022694607480494FFF7C1
:1021200047FC08B1FEF7EFF90348FFF751FB08B091
:1021300010BD0000004801402402002010B58CB002
:1021400000240794089409941C2168460A94FEF719
:1021500004F91E481C49016040F28F61C0E9011476
:1021600040F2CF71C0E903148461FFF733F808B17E
:10217000FEF7C9F94FF48050079007A91348FFF7FD
:10218000F1F808B1FEF7BFF91048FFF777FC08B186
:10219000FEF7B9F96020CDE90004029400226946F7
:1021A0000A480494FFF704FC08B1FEF7ACF90422D6
:1021B00069460648FFF7FCFB08B1FEF7A4F903489F
:1021C000FFF706FB0CB010BD001800406C020020A9
:1021D00010B58CB024216846FEF7BFF800241648DD
:1021E000099414490A9401606321C0E901144EF670
:1021F0005F21C0E90314446184610120CDE900043A
:10220000CDE902040494CDE90540079469460A48E3
:102210000894FFF715F908B1FEF775F9099409A9B3
:1022200005480A94FEF78EFF002801D0FEF76BF9EF
:102230000CB010BD000001402C00002010B58CB087
:1022400024216846FEF789F80024154809944FF0C8
:1022500080410A9401606321C0E901144EF65F21B8
:10226000C0E9031484610120CDE90004CDE9020432
:102270000494CDE905400794694609480894FFF79E
:10228000DFF808B1FEF73FF9099409A904480A9458
:10229000FEF758FF002801D0FEF735F90CB010BD4D
:1022A0007400002010B58EB000240794089409949F
:1022B0000A940B941C2168460C94FEF74EF82648AD
:1022C000244901605321C0E9011440F2E731C0E91B
:1022D00003148461FEF77EFF08B1FEF714F94FF492
:1022E0008050079007A91C48FFF73CF808B1FEF79B
:1022F0000AF91948FFF7C2FB08B1FEF704F90B947D
:102300000BA915480C94FEF71DFF08B1FEF7FBF86A
:102310006020CDE900040294002269460E4804942E
:10232000FFF746FB08B1FEF7EEF8082269460A48B7
:10233000FFF73EFB08B1FEF7E6F80C2269460648B7
:10234000FFF736FB08B1FEF7DEF80348FFF740FA67
:102350000EB010BD00040040BC00002010B58CB0D1
:1023600024216846FDF7F9FF002416480994144912
:102370000A9401606321C0E901144EF65F21C0E9AF
:10238000031484610120CDE90004CDE90204049422
:10239000CDE90540079469460A480894FFF750F8CC
:1023A00008B1FEF7B0F8099409A906480A94FEF7A7
:1023B000C9FE002801D0FEF7A6F80CB010BD000041
:1023C000000800400401002010B58EB000240794DE
:1023D000089409940A940B941C2168460C94FDF708
:1023E000BCFF2648244901605321C0E9011440F292
:1023F000E731C0E903148461FEF7ECFE08B1FEF793
:1024000082F84FF48050079007A91C48FEF7AAFFF6
:1024100008B1FEF778F81948FFF730FB08B1FEF76E
:1024200072F81648FFF796FA08B1FEF76CF80B94AD
:102430000BA912480C94FEF785FE08B1FEF763F86D
:102440006020CDE900040294002269460B48049400
:10245000FFF7AEFA08B1FEF756F80C2269460748B6
:102460000094FFF74DFA08B1FEF74DF80348FFF767
:10247000AFF90EB010BD0000000C00404C01002070
:1024800010B58CB024216846FDF767FF002416487C
:10249000099414490A9401606321C0E901144EF6BD
:1024A0005F21C0E90314446184610120CDE9000487
:1024B000CDE902040494CDE90540079469460A4831
:1024C0000894FEF7BDFF08B1FEF71DF8099409A9AD
:1024D00005480A94FEF736FE002801D0FEF713F8EF
:1024E0000CB010BD000401409401002010B58CB068
:1024F00000240794089409941C2168460A94FDF767
:102500002CFF1E481C4901605321C0E9011440F210
:10251000E731C0E903148461FEF75CFE08B1FDF702
:10252000F2FF4FF48050079007A91448FEF71AFFF6
:1025300008B1FDF7E8FF1148FFF7A0FA08B1FDF771
:10254000E2FF6020CDE900040294002269460B48B6
:102550000494FFF72DFA08B1FDF7D5FF0422694670
:102560000648FFF725FA08B1FDF7CDFF0348FFF74E
:102570002FF90CB010BD000000400140DC0100202C
:102580000C4810B50A4901604FF4E1314160002167
:1025900081600C22C160C0E904128161C161FFF752
:1025A0009BFC002803D0BDE81040FDF7ACBF10BD78
:1025B00000100140B4020020FEE7FEE770477047BC
:1025C0007047FEF76DBA000030B593B03021684611
:1025D000FDF7C3FE14210CA8FDF7BFFE1D48002522
:1025E000016841F080510160006800F08050119056
:1025F0001948016841F4804101600068022400F438
:1026000080401190012003901020049000940694C3
:102610000820CDE90750A820CDE9090404200B903B
:102620006846FEF7C3FB08B172B6FEE70CA90F209F
:1026300081E831004FF4A0500F904FF4805010907B
:1026400005210CA8FEF7C6FA002801D072B6FEE7F5
:1026500013B030BD403802400070004002480168AD
:1026600041F470010160704788ED00E00148FFF718
:1026700017B80000BC0000200148FFF711B80000A7
:102680004C010020F0B50268294C2A4D2A4E2B4FF0
:102690002B4B4FF0804CA04209D0604507D0A84298
:1026A00005D0B04203D0B84201D0984204D122F004
:1026B000700E4A6842EA0E02A0421BD0604519D053
:1026C000A84217D0B04215D0B84213D0984211D0CA
:1026D0001C4DA8420ED01C4DA8420BD01B4DA84249
:1026E00008D01B4DA84205D01A4DA84202D01A4D61
:1026F000A84203D122F44075CA682A434D6922F0EA
:1027000080022A4302608A68C2620A688262A0422A
:1027100001D0984201D10969016301214161016938
:10272000C90703D0016921F001010161F0BD00007A
:10273000000001400004004000080040000C004080
:1027400000040140004001400044014000480140B5
:1027500000180040001C00400020004010B501F0AF
:102760001F030121046A99408C430462016A9A4064
:102770001143016210BD10B5846842EA032224F4BB
:102780007F440A432243826010BD826822F07002B7
:102790000A4342F00701816070470000064B02685F
:1027A0009A4201D1054A04E0054B9A4203D1034AFB
:1027B0000832C2E900017047000400401000002008
:1027C000000C0040F0B5036A026A22F001020262C6
:1027D00042688469124E24F073050C682C4323F080
:1027E00002058B682B430D4DA84201D0B04205D1A4
:1027F00023F00807CB683B4323F00403A84201D031
:10280000B04205D14D6922F4407215438A692A43CA
:1028100042608461496841630362F0BD0000014089
:1028200000040140F0B5026A036A23F0100303625A
:10283000436884690D6824F4E64444EA05248D68FD
:1028400022F0200242EA05120F4D104EA84201D09C
:10285000B04206D1CF6822F0800242EA071222F08D
:102860004002A84201D0B04207D14D6923F4406331
:1028700043EA85038D6943EA8503436084614968BF
:1028800081630262F0BD00000000014000040140CD
:10289000F0B5026A036A23F4807303624368C46973
:1028A00022F4007224F073050C68124E2C438D68DC
:1028B00042EA05220E4DA84201D0B04206D1CF68AF
:1028C00022F4006242EA072222F48062A84201D088
:1028D000B04207D14D6923F4405343EA05138D6993
:1028E00043EA05134360C4614968C1630262F0BDF5
:1028F000000001400004014030B5046A026A22F47D
:10290000805202624268C3690D6823F4E64343EAD9
:1029100005238D6824F4005444EA0534084DA84288
:1029200002D0084DA84204D14D6922F4804242EA07
:1029300085124260C36149680164046230BD0000D1
:10294000000001400004014010B5036A046A24F04D
:1029500001040462846924F0F00444EA021423F0C0
:102960000A020A438461026210BD10B5036A046A58
:1029700024F010040462846923F0A00324F470445A
:1029800044EA023243EA01118261016210BD000093
:1029900010B580222549264800F016F92549264819
:1029A000FFF7FCFE25492648FFF7F8FE2248FEF710
:1029B00099FC2348FEF796FC3C212248FEF728FEAE
:1029C0003C212148FEF724FE3C212048FEF720FE52
:1029D0003C211F48FEF71CFE00211748FFF77EF838
:1029E00008211548FFF77AF80C211348FFF776F80D
:1029F00000211648FFF772F80C211448FFF76EF813
:102A000000211448FFF76AF804211248FFF766F81E
:102A100000211148FFF762F800211048FFF75EF827
:102A2000BDE8104004210D48FFF758B8712E00088A
:102A3000B4020020A12E0008BC000020812E000856
:102A40004C0100202C000020740000200401002014
:102A500094010020DC010020240200206C020020F0
:102A600010B5806B0021C185C184FFF7FBF810BD54
:102A700070B5846B2068406994F84110C0F3C010B1
:102A80000025212904D118B1E584204600F08EF8F4
:102A90002068406994F84210C0F38010222904D1C4
:102AA00018B1E585204600F05AF8606C40F010003F
:102AB00060642046FFF7D6F870BD10B50146806B04
:102AC000096809684FF00002C9052ED4C285016863
:102AD0000C3151E8003F23F4807341E80034002CAE
:102AE000F5D10168143151E8003F23F0010341E8BA
:102AF0000034002CF5D10168143151E8003F23F077
:102B0000400341E80034002CF5D1202180F8421028
:102B1000016B012909D101680C3151E8003F23F014
:102B2000100341E80034002CF5D14263016B012908
:102B300002D0FFF777FA10BD818DFFF76FF810BD57
:102B400010B5806B01214163016B012902D0FFF7B1
:102B50006AFA10BD818D4908FFF760F810BD016861
:102B60000C3151E8002F22F4907241E80023002B31
:102B7000F5D10168143151E8002F22F0010241E83B
:102B80000023002BF5D1016B012909D101680C311B
:102B900051E8002F22F0100241E80023002BF5D16C
:102BA000202180F8421000210163704701680C3138
:102BB00051E8002F22F0C00241E80023002BF5D19C
:102BC000202180F84110704710B50A4C0368A342D9
:102BD0000FD1094BC3F80C111860A3F8042103F1BD
:102BE0008401FEF7F4FF05480068016821F0080140
:102BF000016010BD00100140BC030020FC02002059
:102C000008B590F84210222901D0022008BD826840
:102C10004FF480539A4201D1016921B1816A9A42ED
:102C20001BD04AB10AE00268816A5268C2F3080206
:102C30000A80816A891C08E0026972B102685268E0
:102C400002F07F020A70816A491C8162C18D491EAF
:102C50000904090CC18503D01BE002685268F1E742
:102C60000168CA6822F02002CA600168CA6822F4BA
:102C70008072CA6001684A6922F001024A6120211B
:102C800080F8421000214163026B012A03D0FFF754
:102C9000C9F9002008BD016301680C3151E8002F1B
:102CA00022F0100241E80023002BF5D101680A68E8
:102CB000D20602D50A6849680091818DFEF7AEFF01
:102CC000E7E7000070B5044600680169E26821F496
:102CD0004051114301612169A068E26908436169BB
:102CE000114308432168CA6849F20C639A430243BE
:102CF000CA6020684169A26921F4407111434161B1
:102D000031492068884202D03049884202D1FEF71A
:102D10000BF801E0FDF7F8FFE269002319216425B3
:102D20003226B2F5004F626828D0A0FB0101930F54
:102D30009200FDF79BFA0146B0FBF5F06FF0180228
:102D4000504301EB800006EB0010B0FBF5F000F003
:102D5000F002B1FBF5F002EB0012B1FBF5F06FF001
:102D60001803584301EB800006EB0010B0FBF5F0B0
:102D700000F00F0021681044886070BDA0FB0101C5
:102D800092185B41FDF772FA0146B0FBF5F00201C3
:102D9000B1FBF5F06FF01803584301EB800006EB30
:102DA000C000B0FBF5F000F0F80002EB4002B1FB10
:102DB000F5F0584301EB800006EBC000B0FBF5F0E6
:102DC00000F00700D6E700000010014000140140A9
:102DD00038B5816204468285002013466064222251
:102DE00084F84220E56B1B4AEA63E56B1A4A2A64C1
:102DF000E56B1A4AEA64E26B10650A462168E06BEB
:102E0000091DFDF717FD20680168406800902069E2
:102E100048B120680C3050E8001F41F4807140E850
:102E20000012002AF5D12068143050E8001F41F04C
:102E3000010140E80012002AF5D12068143050E862
:102E4000001F41F0400140E80012002AF5D10020A7
:102E500038BD0000BB2A0008412B0008712A000879
:102E60000148FEF701BF0000B4020020FEE70000A9
:102E70000A460146014800F04FB80000CC0400208B
:102E800070B5064D002400BF04EB840005EB800004
:102E900000F01EF8641C042CF6DB70BDCC0400208E
:102EA000094810B54168491C4160B1F57A7F0AD3E1
:102EB0000021416001210170044800F03DF8BDE8A7
:102EC0001040FFF77BBB10BD24000020CC04002085
:102ED0000D4A1168491C1160012910D141680B4A43
:102EE000491C416001290BD0022908D11168496AA7
:102EF0008289891A018200218181C18141607047E4
:102F00001168496A81817047200000202C00002050
:102F1000002181818160704730B5046D00230E2A45
:102F2000A4F8042107D1CC5C03F18402056D5B1C7D
:102F30000E2BAC54F7DB30BD70470907090E002893
:102F400004DB00F1E02080F80014704700F00F006F
:102F500000F1E02080F8141D70472DE9F0411C4677
:102F600017460E00804607D0054602E02846B047C7
:102F70003D442046641EF9D24046BDE8F081000081
:102F800010B50A48042314220949FFF7E6FF9FED14
:102F9000090A80ED180A80ED190A80ED1A0A80ED01
:102FA0001B0A80ED1C0A80ED1D0A10BDCC04002018
:102FB000112F000800000000FDF77AFDFFF704FB69
:102FC000FFF752F8FFF732F8FFF702F9FFF736F98B
:102FD000FFF768F9FFF7C2F9FFF7F6F9FFF750FAC4
:102FE000FFF784FAFFF776F8FFF7A8F8FFF7C8FABB
:102FF000FFF7CEFCFEE74FF04070E1EE100A70479D
:103000000006101600061016000000000000000068
:10301000010203040607080900000000010203047E
:1030200044300008000000202C000000C40100080B
:10303000703000082C0000207C0B0000E00100082C
:1030400041FFFFFF01000000100000000000000031
:103050000024F40000000000000000000000000058
:103060000000000000000000000000000000000060
:040000050800018965
:00000001FF
