:020000040800F2
:10000000280A002089010008F71C0008431900088D
:10001000F51C00088F020008D12200080000000033
:10002000000000000000000000000000FB1C0008B1
:10003000EB02000800000000F91C0008FD1C00088D
:10004000A3010008A3010008A3010008A301000800
:10005000A3010008A3010008A3010008A3010008F0
:10006000A3010008A3010008A3010008A3010008E0
:10007000910200089D020008A3010008A3010008E6
:10008000A9020008B5020008A3010008A3010008A6
:10009000A3010008A3010008A3010008A3010008B0
:1000A000A3010008A3010008A3010008A3010008A0
:1000B000A3010008A3010008A3010008A301000890
:1000C000A3010008A3010008A3010008A301000880
:1000D000A3010008A3010008B9220008C5220008F6
:1000E000A3010008A3010008A301000800F002F822
:1000F00000F03AF80AA090E8000C82448344AAF188
:100100000107DA4501D100F02FF8AFF2090EBAE885
:100110000F0013F0010F18BFFB1A43F0010318473B
:10012000F42B0000142C0000103A24BF78C878C1CA
:10013000FAD8520724BF30C830C144BF04680C60ED
:10014000704700000023002400250026103A28BF35
:1001500078C1FBD8520728BF30C148BF0B60704739
:100160001FB51FBD10B510BD00F058F81146FFF7C0
:10017000F7FF02F055FA00F076F803B4FFF7F2FF4C
:1001800003BC00F07DF8000009488047094800479B
:10019000FEE7FEE7FEE7FEE7FEE7FEE7FEE7FEE737
:1001A000FEE7FEE704480549054A064B7047000094
:1001B000011D0008ED00000828040020280A002086
:1001C00028060020280600204FF0000200B5134644
:1001D00094469646203922BFA0E80C50A0E80C5067
:1001E000B1F12001BFF4F7AF090728BFA0E80C5018
:1001F00048BF0CC05DF804EB890028BF40F8042B11
:1002000008BF704748BF20F8022B11F0804F18BF7D
:1002100000F8012B7047704770477047754600F033
:100220002BF8AE4605006946534620F00700854688
:1002300018B020B5FFF7B6FFBDE820404FF000062C
:100240004FF000074FF000084FF0000B21F00701BE
:10025000AC46ACE8C009ACE8C009ACE8C009ACE801
:10026000C0098D46704710B50446AFF300802046A4
:10027000BDE81040FFF781BF00487047C40300206D
:1002800001491820ABBEFEE7260002007047FEE7DA
:10029000014800F09DB8000068030020014800F00C
:1002A00097B8000024030020014800F091B8000036
:1002B0009C020020014800F08BB80000E002002002
:1002C00030B590F840500124AC40C56B6C600468B8
:1002D00063604368102B036803D099600068C260B4
:1002E00030BD9A600068C16030BD704772B6FEE7ED
:1002F00010B590F821100022022905D00421816355
:1003000080F82020012010BD01680B6823F00E0347
:100310000B6001680B6823F001030B6090F840301C
:10032000C46B012101FA03F3636080F8211080F8A7
:100330002020104610BD000010B590F821100024B8
:10034000022903D00421816301243DE001680A6889
:1003500022F00E020A6001680A6822F001020A60B7
:100360001A4A0168914201D1012121E0174A143251
:10037000914201D110211BE0144A2832914201D14F
:10038000891515E0114A3C32914201D189140FE0E0
:100390000E4A5032914202D14FF4803108E00B4AAC
:1003A0006432914202D14FF4801101E04FF080712C
:1003B000064A083A5160012180F82110002180F896
:1003C0002010416B01B18847204610BD0800024053
:1003D0002DE9F05FC16B0C6801680B68D0F840C074
:1003E000042202FA0CF2494DDFF824A1494E4A4F8B
:1003F000DFF828B1DFF828E122422CD05A072AD5AD
:100400000A68920603D40A6822F004020A600168AE
:10041000A94201D1042219E0514501D1402215E041
:10042000B14202D14FF4806210E0B94202D14FF4E0
:1004300080420BE0594502D14FF4802206E071451D
:1004400002D14FF4800201E04FF080622F49083959
:100450004A60C16A3BE04FF0020808FA0CF818EA5B
:10046000040F4FF000094FF0010235D05FEA8378A6
:1004700032D50B689B0605D40B6823F00A030B608A
:1004800080F821200168A94201D1022219E05145DA
:1004900001D1202215E0B14202D14FF4007210E0E8
:1004A000B94202D14FF400520BE0594502D14FF44A
:1004B000003206E0714502D14FF4001201E04FF026
:1004C0000072124908394A6080F82090816A002938
:1004D0001AD0BDE8F05F0847082505FA0CF525425B
:1004E00012D01B0710D50B6823F00E030B6090F899
:1004F0004010C36B02FA01F15960826380F8212039
:1005000080F82090016BE2E7BDE8F09F0800024010
:100510001C000240300002404400024058000240EB
:100520006C00024030B528B308C81349142219449E
:10053000B1FBF2F18900C163104981630221417767
:100540001A6843F6F0718A43D0E900142143D0E9D8
:1005500002452C43214304692143446921438469B2
:100560002143114319600021416301224277017741
:10057000084630BD012030BDF8FFFDBF000002403D
:1005800070B5044690F82000002501280CD0012009
:1005900084F8200094F821600020012E06D084F811
:1005A00020000225284670BD022070BD022684F876
:1005B0002160A0632068066826F0010606602046D8
:1005C000FFF77EFEE06A00282068016802D041F053
:1005D0000E0106E021F0040101602068016841F08D
:1005E0000A0101602068016841F001010160D9E75A
:1005F0002DE9F84FDFF8B8910024A9F1040B234648
:100600000F2709F1040AABF1040EC9E00125A5404A
:100610002A40AA427DD1674ED1F804C0ACEB06084F
:10062000B44532D014DCBCF1030F3AD009DCBCF184
:10063000000F2AD0BCF1010F1CD0BCF1020F31D148
:100640001DE0BCF1110F17D0BCF1120F2AD119E037
:10065000B8F5881F19D006DCB8F5803F15D0B8F57D
:10066000801F1FD111E0B8F5001F0ED0B8F5041F90
:1006700018D10AE0CB6815E0CB681B1D12E0CB68EF
:1006800008330FE0CB680C330CE08B682BB1012BE7
:100690004FF0080303D0456104E0042302E0056144
:1006A00000E00023FF2A01D8064601E000F104061D
:1006B0004FEA840501D9A5F12005D6F8008007FA94
:1006C00005FC28EA0C0803FA05F548EA0508C6F80F
:1006D00000804D68ED0062D5374DAE6946F00106E9
:1006E000AE61AD6924F0030605F001050095334DB8
:1006F00006EB050CDCF80850A607360F07FA06F8DB
:1007000025EA0805DFF8B880404503D14FF000081E
:1007100017E044E0DFF8AC80404502D14FF001081B
:100720000FE0DFF8A480404502D14FF0020808E056
:10073000DFF89880404502D14FF0030801E04FF008
:10074000040808FA06F848EA0508CCF808804D685D
:10075000D9F80060ED024D4601D5164300E09643FE
:100760002E604D68DAF80060AD02554601D516439B
:1007700000E096432E604D68DBF80060AD035D46F7
:1007800001D5164300E096432E604D68DEF8006008
:10079000ED03754601D5164300E096432E60641CB8
:1007A0000D682A46E5407FF431AFBDE8F88F0000C0
:1007B0000804014000001110001002400000014038
:1007C00000080140000C01400010014000140140ED
:1007D0000AB1016170470904FBE700000148806825
:1007E000704700000400002002488168027811442C
:1007F0008160704704000020074810B5016841F08F
:1008000010010160032000F075F8002000F006F8E8
:1008100000F024F8002010BD0020024070B50D4DFE
:1008200004464FF47A712878B1FBF0F00A49096860
:10083000B1FBF0F000F0DCFA48B9102C07D200222E
:100840002146501E00F036F800206C6070BD01207B
:1008500070BD000004000020100000200C4808B506
:10086000816941F001018161816901F0010100911B
:10087000C16941F08051C161C06900F080500090B1
:100880000448416821F0E06141F00071416008BD19
:100890000010024000000140002809DB00F01F02A8
:1008A000012191404009800000F1E020C0F80011D2
:1008B00070470000F0B40E4B1B680C46C3F30223D4
:1008C000C3F10705042D00D90425191D072901D2FC
:1008D000002300E0DB1E012606FA05F1491E214037
:1008E00099409E40761E16403143F0BC01F088BE10
:1008F0000CED00E0064900F0070208684FF6FF0320
:10090000184040EA0220034A104308607047000084
:100910000CED00E00000FA052DE9F0470F46050058
:1009200061D0434E306800F00700B84209D2306809
:1009300020F0070038433060306800F00700B8420C
:1009400051D128683B4C810712D5400703D5606818
:1009500040F4E06060602878000703D5606840F4E8
:10096000605060606068A96820F0F0000843606033
:100970002878C00728D06868012810D0216802288C
:1009800010D0890700292EDA616821F003010143A4
:100990006160FFF723FF804641F288390DE021684E
:1009A0008903EFE78901EDE7FFF718FFA0EB0801E6
:1009B000494502D90320BDE8F0876068696800F006
:1009C0000C00B0EB810FEFD1306800F00700B842A7
:1009D0000BD9306820F0070038433060306800F0F1
:1009E0000700B84201D00120E5E72878400705D587
:1009F0006068E96820F4E0600843606028780007D8
:100A000006D56068296920F4605040EAC100606042
:100A100000F038F86168084AC1F30311515CC8401E
:100A20000649086006480068FFF7F8FE0020C2E7A4
:100A30000020024000100240FC2C000810000020A2
:100A4000080000200448054900684968044AC1F3C9
:100A50000221515CC8407047100000200010024085
:100A60000C2D00080448054900684968044AC1F390
:100A7000C221515CC84070471000002000100240A5
:100A80000C2D00080E4A51680E4801F00C03042B8F
:100A900011D0082B0FD10C48C1F38343C903C05CAC
:100AA0000AD55168084AC1F34041921E515C054A7B
:100AB0005043B0FBF1F070470449484370470000D1
:100AC0000010024000127A00EC2C000800093D00E2
:100AD0002DE9F84F040070D02078C04DC00749D0F0
:100AE0006868C0F38100012807D06868C0F38100FE
:100AF000022809D16868C00306D52868800339D563
:100B000060680028E7D035E06068B0F5803F0BD022
:100B100010B1B0F5A02F11D0286820F480302860E3
:100B2000286820F4802002E0286840F480302860A3
:100B3000606890B1FFF752FE06460AE0286840F46C
:100B400080202860F0E700BFFFF748FE801B642884
:100B500073D828688003F7D50CE0FFF73FFE064600
:100B600005E000BFFFF73AFE801B6428F0D8286834
:100B70008003F7D420789A4E80074FF001094FF098
:100B8000000839D5686810F00C0F07D06868C0F30A
:100B90008100022809D16868C00306D4286880074C
:100BA00014D52069012808D110E02069B0B1C6F839
:100BB0000090FFF713FE074605E00AE1FFF70EFE7F
:100BC000C01B0228C4D828688007F7D52868616947
:100BD00020F0F80040EAC10028600DE0C6F800806F
:100BE000FFF7FCFD074604E0FFF7F8FDC01B0228F5
:100BF00023D828688007F7D4207800072CD57948B7
:100C0000A169D9B1C0F80090FFF7E8FD074604E0FC
:100C1000FFF7E4FDC01B02280FD8686A8007F7D5EC
:100C200071484FF4FA510068B0FBF1F0009000BF3A
:100C30000098411E0091FAD20EE080E0C0F80080DA
:100C4000FFF7CCFD074604E0FFF7C8FDC01B0228F4
:100C500075D8686A8007F7D42078400760D5E869BE
:100C60000027C00008D4E86940F08050E861E869D6
:100C7000012700F0805000905C480168C90513D43A
:100C80000168834641F480710160FFF7A7FD824649
:100C900006E000BFFFF7A2FDA0EB0A0064284ED8D3
:100CA000DBF80000C005F5D5E06801280AD008B1DE
:100CB000052813D0286A20F001002862286A20F055
:100CC000040002E0286A40F001002862E06841F276
:100CD000883B98B1FFF782FD82460BE0286A40F01E
:100CE00004002862EEE700BFFFF778FDA0EB0A01E1
:100CF00059455AD8286A8007F6D50CE0FFF76EFDF3
:100D0000824605E0FFF76AFDA0EB0A0159454CD881
:100D1000286A8007F6D41FB1E86920F08050E861A6
:100D2000E06988B36968C1F38101022944D00228CF
:100D3000C6F8608004D0FFF751FD044638E034E087
:100D4000FFF74CFD074604E0FFF748FDC01B0228F3
:100D50002BD828688001F7D4206AB0F5803F05D1F0
:100D60006868A16820F4003008436860D4E908018D
:100D70000843696821F4741108436860C6F86090FC
:100D8000FFF72CFD044606E025E000BFFFF726FD37
:100D9000001B022809D828688001F7D51BE000BF96
:100DA000FFF71CFD001B022802D90320BDE8F88FC5
:100DB00028688001F4D40EE00128F7D06868226A20
:100DC00000F48031914204D1616A00F470108842CD
:100DD00001D00120EAE70020E8E70000001002400F
:100DE0000000424280044242100000200070004097
:100DF00010B5401EB0F1807F01D3012010BD4FF02F
:100E0000E02460610F21601701F0FAFB0020A0616F
:100E100007202061002010BD70B590F83C20012A09
:100E200026D0012480F83C40022280F83D2003684F
:100E30005A689D6822F070060A6832435A600D4B6A
:100E400002689A4208D0B2F1804F05D00A4B9A420C
:100E500002D00A4B9A4204D1496825F08003194315
:100E6000916080F83D40002180F83C10084670BD3C
:100E7000022070BD002C014000040040000800402A
:100E800010B5040003D094F83D0010B107E0012034
:100E900010BD002084F83C00204600F01FF802201E
:100EA00084F83D00211D206800F02CFF012084F80B
:100EB000460084F83E0084F83F0084F8400084F83F
:100EC000410084F8420084F8430084F8440084F828
:100ED000450084F83D00002010BD000008B50C4A14
:100EE00001680C48914207D1C16941F00201C1611A
:100EF000C06900F0020009E0074A914207D1C169C8
:100F000041F00401C161C06900F00400009008BD17
:100F100000040040001002400008004070B5044684
:100F200090F83C000025012817D0012684F83C6089
:100F3000022084F83D002068826822F0770222F4C3
:100F40007F4282600868502838D00DDC20284FD0BE
:100F500005DC90B3102811D14AE0022070BD302882
:100F600046D040280AD13BE060282FD070280DD011
:100F7000B0F5805F03D0B0F5005F12D0012584F892
:100F80003D60002084F83C00284670BDCB68D1E964
:100F90000121206800F0FFFE2068816841F07701A0
:100FA00009E0CB68D1E90121206800F0F4FE206857
:100FB000816841F480418160E1E719E0CA684968CD
:100FC000206800F09DFF5021206806E0CA6849684B
:100FD000206800F0A6FF6021206800F0E6FECEE762
:100FE000CA684968206800F08BFF40212068F4E758
:100FF000226801461046F0E72DE9F0410D46040055
:1010000003D094F83D0018B108E00120BDE8F0815C
:10101000002084F83C00204600F040F8022084F8CC
:101020003D002068816844F2070291438160211DE0
:10103000206800F067FE226890689169166A2B6844
:10104000AF69034340F20330814341EA0721A868B6
:10105000EF6908434FF6FC418843E96840EA0720FE
:10106000014328692F6A000140EA07300843696894
:101070006D6926F0220646EA051529439360226829
:10108000906154F8460B0162012004F81F09E075D5
:101090002076E0762077A0750020B7E700B585B010
:1010A00000210091019102910391194B02681949A5
:1010B00019489A4212D18A6942F400628A618A69A7
:1010C00002F4006204928A6942F004028A6189692A
:1010D00001F0040104914FF4407113E0B2F1804F2C
:1010E00014D1CA6942F00102CA61CA6902F0010260
:1010F00004928A6942F004028A61896901F004015C
:101100000491032100916946FFF772FA05B000BD12
:10111000002C0140001002400008014070B590F81A
:101120003E60044690F83F5090F8423090F84320DB
:10113000022021B104290ED0012E1BD114E0012E72
:1011400018D1012B16D184F83E0084F84200012208
:101150000021206820E0012D0CD1012A0AD184F859
:101160003F0084F8430014E0012D03D1012B01D18D
:10117000012A01D0012070BD84F83E0084F83F00B0
:1011800084F8420084F8430001220021206800F026
:10119000F5FD01220421206800F0F0FD20680168BF
:1011A00041F001010160002070BD000030B585B044
:1011B000002100910191029103911C4B02681C498E
:1011C000C02002241B4D9A421BD18A6942F00402BE
:1011D0008A618A6902F0040204928A6942F0080274
:1011E0008A618969CDE9000401F00801CDE9034174
:1011F00069461148FFF7FCF90320CDE90004039488
:101200000DE00E4B9A420ED18A6942F008028A61C3
:101210008969CDE9000401F00801CDE9034169467F
:101220002846FFF7E5F905B030BD00000004004096
:1012300000100240000C014000080140000800407E
:1012400070B5044690F83C0000260D4601280FD0EA
:10125000012084F83C006AB1042A1DD0082A2FD04E
:101260000C2A3FD00126002084F83C00304670BD97
:10127000022070BD206800F0A1FD2068816941F066
:10128000080181612068816921F004018161206881
:1012900081692A69114311E0206800F0B7FD2068D8
:1012A000816941F4006181612068816921F4806174
:1012B0008161206881692A6941EA02218161D2E75E
:1012C000206800F0CFFD2068C16941F00801C161CC
:1012D0002068C16921F00401C1612068C1692A69DF
:1012E000114311E0206800F0E9FD2068C16941F474
:1012F0000061C1612068C16921F48061C161206819
:10130000C1692A6941EA0221C161ACE710B5040054
:1013100003D094F83D0010B107E0012010BD00207B
:1013200084F83C00204600F01EF8022084F83D00BE
:10133000211D206800F0E6FC012084F8460084F8B6
:101340003E0084F83F0084F8400084F8410084F8AF
:10135000420084F8430084F8440084F8450084F88F
:101360003D00002010BD704710B50446022249B16F
:1013700004290ED0082913D094F84100012816D072
:10138000012010BD94F83E000128F9D184F83E20D8
:101390000FE094F83F000128F2D184F83F2008E0E4
:1013A00094F840000128EBD184F8402001E084F853
:1013B00041200122206800F0E1FC0F4920688842AA
:1013C00003D1426C42F4004242642068884208D053
:1013D000B0F1804F05D00949884202D008498842BF
:1013E00004D1816801F00701062903D0016841F0AA
:1013F00001010160002010BD002C014000040040EC
:101400000008004038B5044690F84200202801D07A
:10141000022038BD51B14AB1012020630020606331
:10142000204600F001FF216B012901D0012038BDC9
:1014300021680A684968009121680C3151E8002F41
:1014400042F0100241E80023002BF5D138BD000026
:1014500070B5044600681849184D884214D11848E0
:101460000021425C6A54491C0C29FADB134800F045
:101470008BFF0C2212491348FFF7C4FF1248006883
:10148000016821F00401016010492068884211D1EF
:101490000F4900200A5C2A54401C0C28FADB0A225F
:1014A0000B490C48FFF7AEFF0B480068016821F0BC
:1014B0000401016070BD000000440040AC03002046
:1014C000000000200C0200209C0200200048004088
:1014D0000002002054020020240300207047000076
:1014E000F8B5016804460868CA684B6910F00F0F28
:1014F0004FF0000559D003F0010602F4907737430E
:1015000065D0C10705D0D10503D5616C41F001015B
:101510006164410705D5D90703D0616C41F0020130
:101520006164810705D5D90703D0616C41F00401DE
:101530006164010707D502F02001314303D0616CDB
:1015400041F008016164616C00293AD0800604D53D
:10155000900602D5204600F0AAFD20684069616C23
:10156000C0F38010090700D460B3204600F06AFD84
:1015700020684069400621D52068143050E8001FDB
:1015800021F0400140E80012002AF5D1E06BA8B13B
:101590006D494163E06BFEF7CFFE002811D0E06B90
:1015A000416B01B0BDE8F040084783060FD59306B4
:1015B0000DD52046BDE8F84000F079BD2046FFF784
:1015C0008DFFF8BD2046FFF789FF6564F8BD266BE7
:1015D0002023012E7CD1C6067AD5D60678D5086898
:1015E0004868009048694FF00206400640D5E16B1C
:1015F000086840680004000CE8D0A28D8242E5D95A
:10160000E085886920282DD020680C3050E8001F24
:1016100021F4807140E80012002AF5D120681430CE
:1016200050E8001F21F0010140E80012002AF5D126
:101630002068143050E8001F21F0400140E80012FB
:10164000002AF5D184F84230256320680C3050E838
:10165000001F21F0100140E80012002AF5D1E06BD4
:10166000FEF746FE6663A08DE18D401A81B22AE046
:10167000A08DE18D401A81B2E08D0028A6D000290E
:10168000A4D022680C3252E8000F20F4907042E897
:101690000007002FF5D12068143050E8002F22F009
:1016A000010240E80027002FF5D184F8423025637D
:1016B00020680C3050E8002F22F0100240E8002390
:1016C000002BF5D166632046FFF7C2FEF8BDFFE7A9
:1016D00005062BD5150629D594F841002128F5D10A
:1016E000A068B0F5805F01D12069B0B1206A411CCB
:1016F0002162216800784860E08C401E0004000CE4
:10170000E084E3D12068C16821F08001C1602068D5
:10171000C16841F04001C160D8E7206A0088C0F389
:1017200008004860206A801C2062E5E74006CDD5AD
:101730005006CBD5CA68204622F04002CA6084F821
:10174000413000F0FDF8C1E7471F000870B5040004
:1017500004D094F84100002510B106E0012070BDCE
:1017600084F84050204600F023F8242084F84100FB
:101770002068C16821F40051C160204600F0F8FCE7
:101780002068016921F4904101612068416921F0DC
:101790002A0141612068C16841F40051C16065645B
:1017A000202084F8410084F842006563002070BD69
:1017B0002DE9F04186B0002500950195029503952D
:1017C0000446574F036857480221032280264FF0F2
:1017D0001008BB424DD1C36943F40033C361C369F0
:1017E00003F400330493836943F004038361806945
:1017F0004D4F00F0040004900420CDE90001039255
:1018000069463846FEF7F4FE0820CDE90005694632
:1018100038460295FEF7ECFE454F4448C7E90005FF
:10182000C7E902563D617D61BD613846FD61FEF745
:1018300079FE08B1FEF75AFDE7637C623C4F3B48F6
:1018400044371430C7E902563D617D61BD61FD61D9
:10185000C7E900083846FEF765FE08B1FEF746FD09
:10186000A7630022114626207C62FFF723F826207A
:1018700051E0304FBB4250D1C36943F48023C36170
:10188000C36903F480230493836943F008038361ED
:101890008069039200F0080004903815CDE900013A
:1018A000254F69463846FEF7A3FEF814CDE900053A
:1018B000694638460295FEF79BFE1D4F1B48883748
:1018C0003C38C7E90005C7E902563D617D61BD614D
:1018D0003846FD61FEF726FE08B1FEF707FDE76317
:1018E0007C62134F1148CC375038C7E902563D612E
:1018F0007D61BD61FD61C7E900083846FEF712FE53
:1019000008B1FEF7F3FCA7630022114627207C6292
:10191000FEF7D0FF2720FEF7BFFF06B0BDE8F0813D
:101920000044004000100240000801406C000240EA
:101930009C02002000480040000C014070477047A6
:101940007047FEE7154808B5416941F00101416162
:101950004069002200F00100009011460C20FEF7C3
:10196000A9FF0C20FEF798FF002211460D20FEF77C
:10197000A1FF0D20FEF790FF002211461020FEF778
:1019800099FF1020FEF788FF002211461120FEF774
:1019900091FFBDE808401120FEF77EBF0010024015
:1019A00070B586B000241848009401940294039402
:1019B000816941F020018161816901F02001049178
:1019C000816941F004018161816901F004010491A0
:1019D000816941F00801816180690C4E00F00800C6
:1019E0004FF440550490002229463046FEF7F0FEA1
:1019F00001200095CDE9010402200390694630469C
:101A0000FEF7F6FD06B070BD00100240000C01406C
:101A100010B58CB024216846FEF7D6FB002416488A
:101A2000099414490A9401600921C0E901144FF690
:101A3000FF71C0E90314446184610120CDE9000411
:101A4000CDE902040494CDE90540079469460A48AB
:101A50000894FFF7D1FA08B1FEF748FC099409A9E8
:101A600005480A94FFF7D8F9002801D0FEF73EFC9C
:101A70000CB010BD002C0140E000002010B58CB06F
:101A800024216846FEF7A0FB0024154809944FF076
:101A900080410A9401600921C0E901144FF6FF71E9
:101AA000C0E9031484610120CDE90004CDE90204FA
:101AB0000494CDE905400794694609480894FFF766
:101AC0009BFA08B1FEF712FC099409A904480A948C
:101AD000FFF7A2F9002801D0FEF708FC0CB010BDFA
:101AE0002801002010B58EB00024079408940994B2
:101AF0000A940B941C2168460C94FEF765FB2A4857
:101B0000284901604721C0E9011440F2E731C0E9EA
:101B100003148461FFF7B4F908B1FEF7E7FB4FF453
:101B20008050079007A92048FFF7F8F908B1FEF7A1
:101B3000DDFB1D48FFF7EAFB08B1FEF7D7FB0B946E
:101B40000BA919480C94FFF767F908B1FEF7CEFB13
:101B50006020CDE9000402940022694612480494F2
:101B6000FFF76EFB08B1FEF7C1FB042269460E4881
:101B7000FFF766FB08B1FEF7B9FB082269460A4881
:101B8000FFF75EFB08B1FEF7B1FB0C226946064881
:101B9000FFF756FB08B1FEF7A9FB0348FFF706FB6A
:101BA0000EB010BD000400407001002010B58EB0D2
:101BB00000240794089409940A940B941C21684605
:101BC0000C94FEF701FB23482149016040F2CF212C
:101BD000C0E9011440F2CF71C0E903148461FFF73A
:101BE0004FF908B1FEF782FB4FF48050079007A928
:101BF0001848FFF793F908B1FEF778FB1548FFF78F
:101C000085FB08B1FEF772FB0B940BA911480C94ED
:101C1000FFF702F908B1FEF769FB6020CDE9000487
:101C20000294002269460B480494FFF709FB08B1AF
:101C3000FEF75CFB042269460648FFF701FB08B18A
:101C4000FEF754FB0348FFF7B1FA0EB010BD0000D9
:101C500000080040B8010020114810B50F4901608C
:101C60004FF4E1314160002181600C22C160C0E984
:101C700004128161C161FFF769FD08B1FEF736FB0F
:101C8000032208490648FFF7BDFB0548903000686D
:101C9000016821F00401016010BD00000044004013
:101CA0000C02002000000020114810B50F4901600F
:101CB0004FF4E1314160002181600C22C160C0E934
:101CC00004128161C161FFF741FD08B1FEF70EFB0F
:101CD00007490A2254390648FFF794FB0448D030DC
:101CE0000068016821F00401016010BD0048004057
:101CF00054020020FEE7FEE770477047FEF774BD10
:101D000070470000F0B50268194B1A4C1A4D4FF09D
:101D10008047984205D0B84203D0A04201D0A842E3
:101D200003D122F070064A683243984205D0B84287
:101D300003D0A04201D0A84203D122F44074CA6863
:101D400022434C6922F08002224302608A68C26208
:101D50000A688262984201D10969016301214161E7
:101D60000169C90703D0016921F001010161F0BDDA
:101D7000002C0140000400400008004010B501F0B4
:101D80001F030121046A99408C430462016A9A404E
:101D90001143016210BD10B5846842EA032224F4A5
:101DA0007F440A432243826010BD826822F07002A1
:101DB0000A4342F0070181607047000030B5036AB2
:101DC000026A22F0010202624268846924F073050B
:101DD0000C682C4323F002058B682B430A4DA84264
:101DE0000BD123F00805CB6822F440722B434D69D8
:101DF00023F0040315438A692A43426084614968D9
:101E00004163036230BD0000002C014030B5026A1E
:101E1000036A23F010030362436884690D6824F4A5
:101E2000E64444EA05248D6822F0200242EA0512C5
:101E30000B4DA8420ED1CD6822F0800242EA051275
:101E40004D6923F4406343EA85038D6922F0400223
:101E500043EA85034360846149688163026230BD5F
:101E6000002C014030B5036A026A22F480720262DB
:101E70004268C46923F4007324F073050C682C4392
:101E80008D6843EA05230C4DA8420ED1CD6823F49A
:101E9000006343EA05234D6922F4405242EA0512E9
:101EA0008D6923F4806342EA05124260C461496887
:101EB000C163036230BD0000002C014030B5046AEC
:101EC000026A22F4805202624268C3690D6823F4F8
:101ED000E64343EA05238D6824F4005444EA0534BC
:101EE000064DA84204D14D6922F4804242EA85128F
:101EF0004260C36149680164046230BD002C014046
:101F000010B5036A046A24F001040462846924F0B1
:101F1000F00444EA021423F00A020A4384610262D4
:101F200010BD10B5036A046A24F0100404628469C9
:101F300023F0A00324F4704444EA023243EA01117E
:101F40008261016210BD10B5406A0021C185C18463
:101F5000FFF7C4FA10BD70B5446A2068406994F870
:101F60004110C0F3C0100025212904D118B1E58427
:101F7000204600F08EF82068406994F84210C0F3C3
:101F80008010222904D118B1E585204600F05AF8C6
:101F9000606C40F0100060642046FFF79FFA70BD4F
:101FA00010B50146406A096809684FF000028906C9
:101FB0002ED4C28501680C3151E8003F23F48073B0
:101FC00041E80034002CF5D10168143151E8003F9C
:101FD00023F0010341E80034002CF5D101681431ED
:101FE00051E8003F23F0400341E80034002CF5D1D4
:101FF000202180F84210016B012909D101680C31C0
:1020000051E8003F23F0100341E80034002CF5D1E3
:102010004263016B012902D0FFF790FC10BD818D56
:10202000FFF716FA10BD10B5406A01214163016B3C
:10203000012902D0FFF783FC10BD818D4908FFF70D
:1020400007FA10BD01680C3151E8002F22F490729C
:1020500041E80023002BF5D10168143151E8002F2D
:1020600022F0010241E80023002BF5D1016B012988
:1020700009D101680C3151E8002F22F0100241E82B
:102080000023002BF5D1202180F8421000210163AC
:10209000704701680C3151E8002F22F0C00241E87E
:1020A0000023002BF5D1202180F84110704708B59E
:1020B00090F84210222901D0022008BD82684FF416
:1020C00080539A4201D1016921B1816A9A421BD0A1
:1020D0004AB10AE00268816A5268C2F308020A80C3
:1020E000816A891C08E0026972B10268526802F0D4
:1020F0007F020A70816A491C8162C18D491E0904F0
:10210000090CC18503D01BE002685268F1E7016841
:10211000CA6822F02002CA600168CA6822F480728C
:10212000CA6001684A6922F001024A61202180F8F0
:10213000421000214163026B012A03D0FFF7FEFB2E
:10214000002008BD016301680C3151E8002F22F026
:10215000100241E80023002BF5D101680A68D2067D
:1021600002D50A6849680091818DFFF771F9E7E7A8
:1021700070B5044600680169E26821F440511143DA
:1021800001612169A0680843616908432168CA6840
:1021900041F20C639A430243CA6020684169A26914
:1021A00021F44071114341611E492068884202D1E7
:1021B000FEF758FC01E0FEF745FC00EBC00101EB27
:1021C0000012606864218000B2FBF0F3B3FBF1F30E
:1021D0006FF018067343B2FBF0F5B2FBF0F605EBB7
:1021E0008305322303EB0515B5FBF1F5B6FBF1F6DC
:1021F00005F0F00505EB0615B2FBF0F6B2FBF0F0CA
:10220000B0FBF1F06FF01802504306EB800003EBD7
:102210000010B0FBF1F0216800F00F002844886046
:1022200070BD00000038014038B5816204468285E7
:10223000002013466064222284F84220E56B1B4A8A
:10224000AA62E56B1A4AEA62E56B1A4A2A63E26BF4
:1022500050630A462168E06B091DFEF791F920687A
:10226000016840680090206948B120680C3050E84F
:10227000001F41F4807140E80012002AF5D1206867
:10228000143050E8001F41F0010140E80012002A1C
:10229000F5D12068143050E8001F41F0400140E8BB
:1022A0000012002AF5D1002038BD0000A11F00084F
:1022B00027200008571F00080148FFF711B9000048
:1022C0000C0200200148FFF70BB900005402002067
:1022D000FEE700002DE9FC411C4800F07DF81C4E93
:1022E0001C48316800F015F900901B48716800F037
:1022F00010F91A4D00246F46CDF8040057F8241049
:1023000055F8240000F0F0F945F82400641C022C74
:10231000F4DB124800F02AF80D48001F017801296B
:1023200007D10F4929600F49696000217160316050
:102330000170286800F080FA0B4C216848636868D7
:1023400000F07AFA21688863BDE8FC81AC030020C4
:1023500028000020BC000020980000204000002041
:1023600000000C4300001D43B8010020044A4168EE
:10237000914202DA034A914200DC42607047000059
:1023800000003E4300000743034902680A604268B8
:102390004A60806888607047B80300202DE9F041EA
:1023A0000C4D00242E1F10E0FEF718FA04EB440237
:1023B00005EB8201D1E901373B44834203D88860B1
:1023C00055F822008047641CE4B230788442EBD395
:1023D000BDE8F081180000202DE9F0412B4C50F8A9
:1023E000011F294D216042686260294A037AA5F1E4
:1023F00008061372407A10730027B046286800F070
:10240000E7F90DD16868014600F0E2F908D170687B
:10241000401C7060C8280ADB1E490120087006E0D5
:102420002168286800F0D4F901D0776003E0706873
:10243000B0F5FA7FF9DA464698F9000000F01CFA88
:10244000216800F031FB08D896F9010000F014FA79
:10245000216800F029FA00D8276096F9020000F000
:102460000BFA616800F020FB08D896F9030000F031
:1024700003FA616800F018FA00D8676020682860E5
:1024800060686860BDE8F081380000202800002006
:1024900040000020240000200149012008707047FE
:1024A0001400002030B58FB028216846FDF78CFE5F
:1024B00014210AA8FDF788FE01210804CDE90010C7
:1024C0000024029402250491CDE907504FF4E01056
:1024D00009906846FEF7FCFA08B172B6FEE70F20D5
:1024E000CDE90A054FF48060CDE90C4002210AA82D
:1024F0000E94FEF711FA002801D072B6FEE70FB075
:1025000030BD30B5DDE9034580E80E00C0E9044583
:1025100030BD2DE9F04104468069E0616069C4E99D
:102520000510206A00F0E0F82062E16800F0BCFAD3
:10253000E06808D380F00040216A00F0B5FA03D2C9
:10254000E06880F0004020620121A06900F08FFB6C
:102550006769394600F0D9FAE16900F0C5F8A16869
:1025600000F0D6F90546216A606800F0D1F9064608
:102570003946206800F0CCF9314600F0B5F829461C
:1025800000F0B2F80546216900F08EFA01D2256903
:1025900009E02069294680F0004000F085FA02D267
:1025A000206980F000452846BDE8F08130B5DDE9BE
:1025B000034580E83E0030BD2DE9FC470C4E0D4F31
:1025C000DFF83490DFF834A0054600244FF07C5843
:1025D000CDE9007604EBC40005EB800043464A4693
:1025E0005146FFF78EFF641C042CF1DBBDE8FC872D
:1025F0000000FA440000C8439A99993F0000204225
:102600000907090E002804DB00F1E02080F800141F
:10261000704700F00F0000F1E02080F8141D7047B3
:102620001CB5FEF7E9F8FFF73DFFFFF7B9F9FFF733
:1026300089F9FFF7EDF9FFF721FAFFF753FAFFF7F2
:10264000B5FAFFF709FBFFF72FFB3C211E48FEF709
:1026500065FD3C211D48FEF761FD00211C48FEF789
:1026600083FE04211A48FEF77FFE08211848FEF772
:102670007BFE0C211648FEF777FE00211548FEF779
:1026800073FE04211348FEF76FFEFFF705FF1248A3
:10269000FFF792FF114C124D124E0F48CDE9005436
:1026A00000231A4631466C30FFF780FF0A48CDE917
:1026B000005400231A4631464830FFF777FF00BF29
:1026C000FFF76CFEFCE70000E0000020280100207E
:1026D00070010020B80100205000002000002041BF
:1026E0000000A0407CF2B03A90EA010F48BF81F0B0
:1026F000004100F11C82421A3CBF801A89184FEA3F
:10270000D0524FF07F4C1CEA410FA2EBD15318BFBF
:102710009CEA026F00F03B804FF0004C4CEA002036
:102720004CEA012121FA03FC10EB0C0C1ED202F141
:10273000FF325FEA1C2040EBC25038BF70471CF0EC
:102740007F0F4FEA400C18BFBCF17F4F38BF704776
:10275000C3F12003994008BF20F00100BCF17F4F76
:1027600038BF7047A0F1C04000F099B94FEA3C0073
:10277000000A40EBC25028BF1CF0FF0F4FEA400C8C
:10278000E6D018BFBCF17F4F38BF7047EAE79CEA3C
:10279000026F05D010EA5C0F08BF00F000407047E0
:1027A00010B500F036F900BF64FBBE3E014800F0F2
:1027B0002CBA00BF0000C07F401058BFC0F140409D
:1027C000491058BFC1F140418142EFF3008070478A
:1027D00050EA010C00F113801CF5000F58BFBCF546
:1027E000000F01D48842704707D710F5000F58BF7B
:1027F00011F5000F15D488427047894270471CF5C7
:10280000000F04D5BCF5000FF7D5814270474FF09B
:10281000807C1CEB400F38BF1CEB410F01D2814282
:10282000704710B500F0F5F8922449004FF00050C1
:102830004FF08051FFF7C0BFC10DD1F19E0206DB02
:102840004FEA002343F0004323FA02F070470042AE
:1028500007D54FEA4001B1F1FE4F02D24FF0000020
:10286000704710B500F0D5F84992248000207047D9
:102870006FEA20007047000010F0004148BF40425E
:10288000B0FA80F310FA03F2C3F19D030BD051EAC2
:10289000C35101EB1220530638BF704700F101000D
:1028A00008BF20F00100704750EA010C00F11380CE
:1028B0001CF5000F58BFBCF5000F01D488427047CB
:1028C00007D710F5000F58BF11F5000F15D4884237
:1028D0007047894270471CF5000F04D5BCF5000F06
:1028E000F7D5814270474FF0807C1CEB400F38BF1A
:1028F0001CEB410F01D28142704710B500F089F8FE
:10290000922449004FF000504FF08051FFF754BF20
:102910004FF47F0C1CEAD0121EBF1CEAD11392EABE
:102920000C0F93EA0C0F00F0478090EA010F48BFAC
:1029300042F480724FF0004C4CEA00204CEA012136
:1029400002EB0302A0FB0113A2F50002002918BF4D
:1029500043F001035B0028BF4FEA330342EB2242FE
:102960005FEA132C4CEBC2502EBFBCEB436FB2F5A9
:102970007C0F70474FEA036CBCF1004F08BF20F09A
:102980000100B2F57C0F38BF70470BD582F0FF0213
:1029900012F5803FC8BF704700F1C040D8BF00F0BB
:1029A0000040704700F5000C5FEA4C0C48BF7047D0
:1029B000B0F1C04000F073B890EA010F0CEAD113F7
:1029C00048BF42F48072624538BF634504D280EA52
:1029D000010000F00040704710B500F01AF800BF89
:1029E0008900013E00F007B800F009B85FEA410C29
:1029F0005FEA1C6C08D080EA010000F050B85FEA82
:102A0000400C5FEA1C6CF6D14FF00040A0F580004E
:102A100070470EF1020E2EF0030E5EF8044B2442B6
:102A200004D44FEA4102B2F17F4F11D84FEA40037C
:102A3000B3F17F4F0CD80ED14FEAD07CB2F17F4F6B
:102A40000CEB4C0C0CF1020C08BF4CEBD17C04E0FD
:102A50004FF0080C01E04FEAD17C0CEB4C0324FA58
:102A600003F404F00704B4F1040C06D20EEB840C5A
:102A7000BDE810404CF0010C6047DFE80CF007089F
:102A800002024FF00040A0F5800010BD0846420051
:102A900018BFD2F1807288BF00F0004010BDFF2146
:102AA00041EAD050C005704751EA000C00F1138094
:102AB0001CF5000F58BFBCF5000F01D481427047D0
:102AC00007D711F5000F58BF10F5000F15D481423C
:102AD0007047894270471CF5000F04D5BCF5000F04
:102AE000F7D5884270474FF0807C1CEB410F38BF10
:102AF0001CEB400F01D28842704780EA010081EA56
:102B0000000180EA0100FFF7F8BE80F0004090EA83
:102B1000010F7FF5F0AD81F0004100F008B8000032
:102B200090EA010F48BF81F000413FF5E4AD421A41
:102B300004D882F00042A0EB020011444FEAD052C8
:102B40004FF07F4C1CEA410FA2EBD15318BF9CEA17
:102B5000026F4AD04FF0004C4CEA00204CEA0121B1
:102B600021FA03FCB0EB0C0C0FD412F0FE0F36D0A0
:102B70005FEA4C001DD5001240EBC25038BF7047D1
:102B80001CF03F0F18BF70470BE0A2F101025FEA93
:102B90001C2040EBC25038BF70471CF07F0F18BF9D
:102BA0007047C3F12003994014BF401E20F001007C
:102BB000704780084FEA122308BF7047B0FA80FCC4
:102BC000A2EB0C02CCF1280C60FA0CF093EA122F65
:102BD00004BF00EBC25070474FEAC3707047130A3E
:102BE0005FEADC1008BF7047F6E79CEA026F04D08A
:102BF00010EA5C0F08BF0020704710B5FFF709FF0F
:102C000040DFF63E81F0004070470CF00F03092BC7
:102C100008BF082000F051800A2B0BD0082B18BFEA
:102C2000704708BF1CF0400F0AD04FF000004FF073
:102C3000000170471CF0400F18BF4FF00040704774
:102C40001CF0100F08D020F0704300F07F4242EAE1
:102C5000D3014FEA4370704700F0604021F07F429B
:102C600042EA000201F07F4040EA727070474FF084
:102C7000FF0212EAD0521CBF92F0FF038B42C2BF88
:102C8000D14200EBC1507047002A0AD0002B0BD074
:102C9000002900F00040A4BF40F0FE4040F40000D6
:102CA000704700F00040704743024FF00B0C18BF14
:102CB0004CF0806C7FF47AAD70471CF4801F11D00B
:102CC0001CF4E02F03D06FEACC31490070474FF07D
:102CD0004050EFF3008222F0704242EA000282F399
:102CE000008870474FF0000070470102020304059E
:102CF000060708090A0B0C0D0E0F1010000000004B
:102D0000000000000102030406070809000000009B
:102D100001020304342D00080000002050000000D0
:102D200028010008842D000850000020D809000068
:102D30004401000800000000010000001000000035
:102D40000000000000127A0000000000D5220008F8
:102D50000A00000000000000000000000000000069
:102D6000000000000AF6E2CE0000000000000000B3
:102D70000000000000000C4300001D4300000000A4
:042D8000000000004F
:04000005080000ED02
:00000001FF
