:020000040800F2
:10000000000B0020290200087D2800081B220008A0
:100010007928000863040008FD2A00080000000099
:10002000000000000000000000000000832800081D
:1000300079040008000000008128000885280008D5
:10004000430200084302000843020008430200087C
:10005000430200084302000843020008430200086C
:10006000430200084302000843020008430200085C
:10007000430200084302000843020008430200084C
:10008000430200084302000843020008430200083C
:10009000430200084302000843020008430200082C
:1000A000430200084302000843020008430200081C
:1000B000430200084302000843020008430200080C
:1000C00043020008430200084302000843020008FC
:1000D00043020008ED2A000843020008430200081A
:1000E00043020008430200084302000843020008DC
:1000F00043020008430200084302000843020008CC
:1001000043020008430200084302000843020008BB
:1001100043020008430200084302000843020008AB
:100120004302000843020008690400084302000873
:10013000430200084302000843020008430200088B
:10014000430200084302000843020008430200087B
:10015000430200084302000843020008430200086B
:10016000430200084302000843020008430200085B
:100170004302000843020008430200080000000098
:10018000430200084302000800F002F800F03CF8C7
:100190000AA090E8000C82448344AAF10107DA45E2
:1001A00001D100F031F8AFF2090EBAE80F0013F0F8
:1001B000010F18BFFB1A43F00103184798380000DD
:1001C000B8380000103A24BF78C878C1FAD852076E
:1001D00024BF30C830C144BF04680C6070470000C1
:1001E0000023002400250026103A28BF78C1FBD840
:1001F000520728BF30C148BF0B6070471FB503F0DE
:1002000013FC1FBD10B510BD00F0F1F81146FFF74B
:10021000F5FF03F0E1FB00F00FF903B4FFF7F2FF85
:1002200003BC00F017F9000009488047094800475F
:10023000FEE7FEE7FEE7FEE7FEE7FEE7FEE7FEE796
:10024000FEE7FEE704480549054A064B70470000F3
:100250008D2800088901000800050020000B0020FF
:10026000000700200007002053EA020C00F069801C
:100270002DE9F04B4FF00006002B1FBFB3FA83F5BA
:1002800003FA05F424FA05F65E4012BF1643B2FAEB
:1002900082F502FA05F4C5F120051EBF22FA05FC1D
:1002A00044EA0C04203556EA044C4FEA144418BFC3
:1002B000641C4FF000084FF00009904271EB030CF2
:1002C00039D3002919BFB1FA81F701FA07F6B0FA5C
:1002D00080F700FA07F6C7F120071EBF20FA07FCD7
:1002E00046EA0C062037B6FBF4FCA7EB0507103FE7
:1002F00007F01F0BCBF120060CFA0BFB2CFA06F6CD
:1003000044BFB3460026202FA4BF5E464FF0000B2B
:100310005BEA060C08BF4FF0010B19EB0B09ABFBB6
:10032000027C48EB0608C01B06FB02CC0BFB03CC8F
:1003300071EB0C01C1E70B46024641464846BDE859
:10034000F08B13B54FF000004FF00001AFF30080C9
:10035000BDE81C4070474FF000020429C0F0128035
:1003600010F0030C00F01B80CCF1040CBCF1020F68
:1003700018BF00F8012BA8BF20F8022BA1EB0C013D
:1003800000F00DB85FEAC17C24BF00F8012B00F833
:10039000012B48BF00F8012B70474FF0000200B559
:1003A000134694469646203922BFA0E80C50A0E898
:1003B0000C50B1F12001BFF4F7AF090728BFA0E846
:1003C0000C5048BF0CC05DF804EB890028BF40F812
:1003D000042B08BF704748BF20F8022B11F0804F54
:1003E00018BF00F8012B704770477047704775467B
:1003F00000F02CF8AE4605006946534620F0070091
:10040000854618B020B5FFF71DFFBDE820404FF02E
:1004100000064FF000074FF000084FF0000B21F0EE
:100420000701AC46ACE8C009ACE8C009ACE8C009BB
:10043000ACE8C0098D46704710B50446AFF30080A4
:100440002046BDE81040FFF7E8BE000000487047B6
:100450009C04002001491820ABBEFEE726000200E4
:10046000704700BFFEE7000010B5024800F072F8C8
:1004700010BD00001C040020704772B600BFFEE7EC
:1004800070B50446A56D00F03FFB064694F83500B4
:10049000022808D08020606500BF002084F8340066
:1004A00000BF012070BD2068006820F016002168A0
:1004B00008602068406920F0800021684861206C55
:1004C00008B9A06C28B12068006820F008002168F5
:1004D00008602068006820F001002168086010E0D2
:1004E00000F012FB801B05280BD92020606503203B
:1004F00084F8350000BF002084F8340000BF0320DA
:10050000D0E72068006800F001000028E8D194F8E6
:100510005C103F208840A860012084F8350000BFAF
:10052000002084F8340000BF00BFBBE7014691F80B
:100530003500022803D0802048650120704705203F
:1005400081F835000868006820F001000A68106032
:100550000020F3E7F8B50446002000908C480068BE
:100560004FF41651B0FBF1F7A56D2E6894F85C10AE
:1005700008208840304098B12068006800F00400EE
:1005800070B12068006820F004002168086094F8C9
:100590005C1008208840A860606D40F00100606534
:1005A00094F85C1001208840304068B120684069B0
:1005B00000F0800040B194F85C1001208840A860F1
:1005C000606D40F00200606594F85C100420884083
:1005D000304068B12068006800F0020040B194F833
:1005E0005C1004208840A860606D40F004006065E5
:1005F00094F85C1010208840304078B32068006880
:1006000000F0080050B394F85C1010208840A860F7
:100610002068006800F4802080B12068006800F441
:10062000002028B9206CC8B12046216C884715E00D
:10063000A06C98B12046A16C88470FE02068006844
:1006400000F4807028B92068006820F00800216854
:100650000860206C10B12046216C884794F85C102B
:10066000202088403040002865D02068006800F0D5
:10067000100000285FD094F85C1020208840A8600B
:1006800094F83500052828D12068006820F016006D
:10069000216808602068406920F080002168486176
:1006A000206C08B9A06C28B12068006820F0080010
:1006B0002168086094F85C103F208840A860012001
:1006C00084F8350000BF002084F8340000BF206D9E
:1006D00010B12046216D8847F8BD2068006800F4FD
:1006E000802080B12068006800F4002028B9606C88
:1006F00010B12046616C88471DE0E06BD8B1204600
:10070000E16B884717E02068006800F4807068B9E2
:100710002068006820F0100021680860012084F83B
:10072000350000BF002084F8340000BFE06B10B13A
:100730002046E16B8847606D38B3606D00F00100C2
:10074000F0B1052084F835002068006820F0010031
:100750002168086000BF0098401C0090B84200D992
:1007600005E02068006800F001000028F3D100BF18
:10077000012084F8350000BF002084F8340000BF59
:10078000E06C10B12046E16C884700BFA4E7000090
:100790000C0000202DE9F0410446002500F0B4F9DA
:1007A000074614B90120BDE8F081606A00B100BFBE
:1007B000022084F8350000BF002084F8340000BF18
:1007C0002068006820F00100216808600AE000F05D
:1007D0009BF9C01B052805D920206065032084F8FB
:1007E0003500E0E72068006800F001000028EED145
:1007F0002068056821480540D4E901010843E16803
:1008000008432169084361690843A1690843E16914
:100810000843216A08430543606A042803D1D4E9E8
:100820000B0108430543206805602068456925F0F1
:100830000705606A0543606A04280DD1A06A054374
:10084000E06A48B1204602F083FB28B14020606591
:10085000012084F83500A6E720684561204602F0B3
:10086000CDFB064694F85C103F208840B060002025
:100870006065012084F83500002094E73F8010F087
:100880002DE9F04704460D4616461F464FF0000876
:10089000D4F8589000BF94F83400012802D1022007
:1008A000BDE8F087012084F8340000BF94F83500DB
:1008B000012825D1022084F83500002060653B46E0
:1008C00032462946204602F02DFB94F85C103F206A
:1008D0008840C9F808002068006840F016002168C8
:1008E0000860206C28B12068006840F0080021688A
:1008F00008602068006840F001002168086006E098
:1009000000BF002084F8340000BF4FF002084046CA
:10091000C6E70000F8B502460B460025002400207B
:100920000021D6E0012606FA01F51E6806EA050454
:10093000AC4274D11E7906F00306012E04D01E7954
:1009400006F00306022E13D190684F000326BE4026
:10095000B0434F00DE68BE403043906050680126CF
:100960008E40B0431E79C6F300168E40304350606F
:100970001E7906F00306032E09D0D0684F00032627
:10098000BE40B0434F009E68BE403043D0601E79E9
:1009900006F00306022E13D1CF0802F1200656F806
:1009A00027004E07F70E0F26BE40B0434F07FF0E3D
:1009B0001E69BE403043CF0802F1200646F82700EA
:1009C00010684F000326BE40B0431E7906F00306B0
:1009D0004F00BE40304310605E6806F44036002E83
:1009E00076D000BF002600963C4E366846F480461E
:1009F0003A4F3E603E46366806F48046009600BF99
:100A000000BF374E8F0856F827008E07370F0F2686
:100A1000BE40B043334EB24202D1002624E057E03C
:100A2000314EB24201D101261EE0304EB24201D118
:100A3000022619E02E4EB24201D1032614E02D4EBB
:100A4000B24201D104260FE02B4EB24201D105265D
:100A50000AE02A4EB24201D1062605E0284EB242F3
:100A600001D1072600E008268F073F0FBE40304324
:100A70001B4E8F0846F82700224E3068A0435E6860
:100A800006F4801606B120431E4E3060361D3068D5
:100A9000A0435E6806F4001606B12043194E361DC9
:100AA0003060184E361F3068A0435E6806F400368A
:100AB00006B12043134E361F3060361F3068A04306
:100AC0005E6806F4803606B120430E4E083E306064
:100AD000491C1029FFF426AFF8BD0000443802403D
:100AE00008380140000002400004024000080240B3
:100AF000000C0240001002400014024000180240A6
:100B0000001C0240083C014001480068704700009A
:100B1000000000200348006803490978084401499F
:100B200008607047000000200800002010B50D4844
:100B3000006840F400700B4908600846006840F403
:100B4000806008600846006840F4807008600320F8
:100B500000F0A6F8002000F007F800F02BF80020C5
:100B600010BD0000003C024070B504460E480078FD
:100B70004FF47A71B1FBF0F00C490968B1FBF0F564
:100B8000284600F02FFC08B1012070BD102C07D2C0
:100B900000222146501E00F045F80548046001E09F
:100BA0000120F2E70020F0E7080000200C00002000
:100BB0000400002008B500BF002000900E48006827
:100BC00040F480400C4908600846006800F480400A
:100BD000009000BF00BF00BF00200090081F006809
:100BE00040F08050091F08600846006800F08050FF
:100BF000009000BF00BF08BD4438024001460846CF
:100C000000280DDB00BF00BF00F01F0301229A4047
:100C100043099B0003F1E023C3F8002100BF00BF9C
:100C200000BF70472DE9F05F80460D46164600274D
:100C300002F09AFD074639462A46334601F007007E
:100C4000C0F1070ABAF1040F02D94FF0040A01E01B
:100C5000C0F1070AD14600F1040ABAF1070F02D227
:100C60004FF0000A01E0A0F1030AD4464FF0010A58
:100C70000AFA09FAAAF1010A0AEA020A0AFA0CFABD
:100C80004FF0010B0BFA0CFBABF1010B0BEA030B62
:100C90004AEA0B042146404602F052FDBDE8F09FAF
:100CA00000BF00F00702064B19684FF6FF0319401A
:100CB000044B0B4343EA0221014B196000BF70470C
:100CC0000CED00E00000FA0570B504460D460CB9C5
:100CD000012070BD5848006800F00700A84209D202
:100CE00055490D700846006800F00700A84201D081
:100CF0000120EEE7207800F0020002281DD12078C4
:100D000000F00400042805D14C48006840F4E0508D
:100D10004A490860207800F00800082805D14748B3
:100D2000006840F46040454908604448006820F08D
:100D3000F000A168084341490860207800F00100F4
:100D4000A8B36068012807D13C4808380068C0F3A0
:100D50004040B8B90120BCE76068022802D0606852
:100D6000032807D1354808380068C0F3406048B907
:100D70000120AEE7314808380068C0F3400008B9E8
:100D80000120A6E72D48006820F0030061680843B1
:100D90002A490860FFF7B8FE064609E0FFF7B4FEEF
:100DA000801B41F28831884202D9032091E707E095
:100DB0002248006800F00C006168B0EB810FEDD1B3
:100DC0001D48006800F00700A84209D91A490D70B3
:100DD0000846006800F00700A84201D0012078E72B
:100DE000207800F00400042807D11448006820F49B
:100DF000E050E168084311490860207800F00800DD
:100E0000082808D10D48006820F46040216940EAB4
:100E1000C1000A49086000F03FF808490968C1F3B9
:100E20000311074A515CC84006490860064800683B
:100E3000FFF79AFE00204CE7003C024008380240D1
:100E40003A3A00080C000020040000200148006825
:100E5000704700000C00002000B5FFF7F7FF0449C1
:100E60000968C1F38221034A515CC84000BD0000FB
:100E7000083802404A3A000800B5FFF7E7FF044986
:100E80000968C1F34231034A515CC84000BD00000B
:100E9000083802404A3A00082DE9F04700240025AE
:100EA0000026A1462548006800F00C0020B1042867
:100EB00005D008283AD105E0DFF8849039E0DFF862
:100EC000849036E01D48001F006800F03F041B4876
:100ED000001F006800F4800078B11A481749091F04
:100EE0000968C1F38811A0FB017001462246002366
:100EF0003846FFF7B9F905460EE011480F49091FBA
:100F00000968C1F38811A0FB017001462246002345
:100F10003846FFF7A9F905460848001F0068C0F3E6
:100F20000140401C4600B5FBF6F902E0DFF81090E6
:100F300000BF00BF4846BDE8F08700000838024007
:100F40000024F40040787D01F8B504460CB9012076
:100F5000F8BD207800F00100002874D0F94800683E
:100F600000F00C0004280DD0F648006800F00C00DA
:100F7000082813D1F348001F006800F48000B0F582
:100F8000800F0BD1EF4808380068C0F340400028BC
:100F900059D06068002856D10120D9E700BF6068A9
:100FA000B0F5803F08D1E7480838006840F4803049
:100FB000E449083908601EE06068B0F5A02F0DD143
:100FC000E0480838006840F48020DE4908390860AD
:100FD0000846006840F4803008600CE0D9480838C2
:100FE000006820F48030D749083908600846006856
:100FF00020F48020086000BF606890B1FFF784FD96
:10100000054606E0FFF780FD401B642801D9032058
:101010009EE7CC4808380068C0F340400028F1D073
:1010200011E0FFF771FD054606E0FFF76DFD401B7F
:10103000642801D903208BE7C24808380068C0F350
:1010400040400028F1D1207800F0020002285FD152
:10105000BC48006800F00C0058B1BA48006800F0C5
:101060000C0008281CD1B748001F006800F480005D
:10107000B0B9B44808380068C0F3400020B1E06857
:10108000012801D0012063E7AE480838006820F04D
:10109000F800216940EAC100AA490839086037E030
:1010A000E06800B30120A8490860FFF72DFD054660
:1010B00006E0FFF729FD401B022801D9032047E77E
:1010C000A04808380068C0F340000028F1D09D48CF
:1010D0000838006820F0F800216940EAC100994909
:1010E0000839086014E0002097490860FFF70CFDFC
:1010F000054606E0FFF708FD401B022801D9032042
:1011000026E7904808380068C0F340000028F1D175
:10111000207800F0080008282CD16069A8B10120CF
:101120008A490860FFF7F0FC054606E0FFF7ECFC93
:10113000401B022801D903200AE782486C3000686E
:10114000C0F340000028F1D014E000207F4908607F
:10115000FFF7DAFC054606E0FFF7D6FC401B022845
:1011600001D90320F4E677486C300068C0F34000F2
:101170000028F1D1207800F00400042870D1002765
:1011800070483830006800F0805090B900BF0020EF
:1011900000906C483830006840F080506949383120
:1011A00008600846006800F08050009000BF00BF53
:1011B00001276748006800F48070B0B9644800688F
:1011C00040F4807062490860FFF79EFC054606E027
:1011D000FFF79AFC401B022801D90320B8E65C48BF
:1011E000006800F480700028F2D000BFA0680128D9
:1011F00008D154486830006840F001005149683116
:1012000008601DE0A06805280DD14E4868300068D0
:1012100040F004004B49683108600846006840F01F
:10122000010008600CE047486830006820F00100C9
:101230004449683108600846006820F004000860EE
:1012400000BFA068A8B1FFF75FFC054609E0FFF703
:101250005BFC401B41F28831884202D9032077E6CB
:1012600026E0384868300068C0F340000028EED01F
:1012700013E0FFF749FC054608E0FFF745FC401B7B
:1012800041F28831884201D9032061E62D48683057
:101290000068C0F340000028EFD1012F07D1294892
:1012A0003830006820F0805026493831086000BF8F
:1012B000A069002845D02348006800F00C000828E9
:1012C0005DD0A069022845D100201F490866FFF7BC
:1012D0001BFC054606E0FFF717FC401B022801D95E
:1012E000032035E6174808380068C0F3406000283E
:1012F000F1D1D4E907010843616A40EA8111012272
:10130000A06AC2EB500041EA00412C20005D41EA96
:1013100000600C49091F086001200B490866FFF7AF
:10132000F3FB054606E0FFF7EFFB401B022801D95F
:1013300003200DE6034808380068C0F34060002829
:10134000F1D049E00838024000004742800E474291
:1013500000700040002021490866FFF7D5FB0546D4
:1013600006E0FFF7D1FB401B022801D90320EFE57F
:101370001B480068C0F340600028F2D12CE0A0694F
:10138000012800D1E4E51648001D0668A06901287F
:1013900020D006F48001E06981421BD106F03F01B4
:1013A000206A814216D147F6C0703040616AB0EBC6
:1013B000811F0FD106F440310122A06AC2EB500018
:1013C000B1EB004F06D106F070612C20005DB1EB4F
:1013D000006F01D00120BBE50020B9E500004742C5
:1013E0000038024070B504462546681EB0F1807F83
:1013F00001D301200FE0681E4FF0E02148610F216A
:101400004FF0FF3002F09CF900204FF0E02188619E
:1014100007200861002070BD30B502460B4600BFB2
:1014200092F83C00012801D1022030BD012082F851
:101430003C0000BF022082F83D001068446810683C
:10144000816824F070041868044310684460184DE3
:101450001068A8421BD01068B0F1804F17D0154D0E
:101460001068A84213D0144D1068A8420FD0134D35
:101470001068A8420BD0124D1068A84207D0114D39
:101480001068A84203D0104D1068A84205D121F081
:1014900080015868014310688160012082F83D0096
:1014A00000BF002082F83C0000BF00BFBDE7000085
:1014B000000001400004004000080040000C004013
:1014C00000040140004001400018004010B50446EF
:1014D0000CB9012010BD94F83D0028B9002084F813
:1014E0003C00204600F026F8022084F83D00211D33
:1014F000206801F0D5F9012084F8460000BF84F887
:101500003E0001213F200155402001554120015559
:1015100000BF00BF012084F8420043200155442051
:1015200001554520015500BF012084F83D000020F1
:10153000D0E7000008B5344A016891420FD100BFDE
:10154000002100913149096841F002012F4A1160E0
:101550001146096801F00201009100BF53E02C4AD6
:10156000016891420FD100BF00210091274909680D
:1015700041F00801254A11601146096801F008018F
:10158000009100BF3FE0234A0168914211D100BFA2
:10159000002100911D49091D096841F480311B4A51
:1015A000121D11601146096801F48031009100BFDD
:1015B00029E0194A0168914211D100BF0021009130
:1015C0001249091D096841F48021104A121D116059
:1015D0001146096801F48021009100BF13E00F4A11
:1015E000016891420FD100BF0021009107490968AD
:1015F00041F04001054A11601146096801F04001BF
:10160000009100BF00BF08BD000400404038024008
:10161000000C00400040014000480140001800401C
:101620002DE9F04104460D46002700BF94F83C0028
:10163000012802D10220BDE8F081012084F83C009D
:1016400000BF022084F83D002068866826F07706F7
:1016500026F47F46206886602868502833D00CDC4A
:10166000202850D004DC00284BD0102851D149E06C
:10167000302849D040284CD139E060282DD070283E
:1016800007D0B0F5805F03D0B0F5005F41D10DE029
:1016900041E0D5E902136A68206801F071F9206819
:1016A000866846F077062068866034E0D5E9021344
:1016B0006A68206801F064F92068806840F480401E
:1016C0002168886027E0EA686968206801F057FDB2
:1016D0005021206801F04AFD1DE0EA686968206831
:1016E00001F060FD6021206801F040FD13E0EA6830
:1016F0006968206801F043FD4021206801F036FD53
:1017000009E000BF00BF00BF2968206801F02EFD7E
:1017100001E0012700BF00BF012084F83D0000BFA9
:10172000002084F83C0000BF384684E72DE9F041F2
:1017300004460D4614B90120BDE8F08194F83D003F
:1017400028B9002084F83C00204600F053F802201D
:1017500084F83D002068806844F2070188432168CE
:101760008860211D206801F09BF82068D0F808806F
:10177000206886692068076A286840EA080840F2FD
:1017800003308643A969A86840EA0120064340F671
:101790000C4086434FF2F0008643E969E86840EA6E
:1017A0000120064328690001296A40EA0130064306
:1017B00027F0220727F088076969686840EA011066
:1017C00007432068C0F808802068866120680762A7
:1017D000012084F8460084F83E0001213F20015595
:1017E000012084F8420043200155012084F83D0087
:1017F0000020A1E710B586B00446142101A8FEF729
:10180000CCFD6B492068884230D100BF0020009099
:101810006848006840F001006649086008460068B2
:1018200000F00100009000BF00BF00BF002000904A
:1018300060481438006840F010005E4914390860B0
:101840000846006800F01000009000BF00BF4FF491
:10185000206001900220029000200390049001205B
:10186000059001A95448FFF755F89FE02068B0F1B2
:10187000804F31D100BF002000904E48001F00680B
:1018800040F001004B49091F08600846006800F05D
:101890000100009000BF00BF00BF0020009045483D
:1018A0001438006840F001004249143908600846C5
:1018B000006800F00100009000BF00BF22200190EE
:1018C000022002900020039004900120059001A9BD
:1018D0003A48FFF71FF869E039492068884232D159
:1018E00000BF002000903348001F006840F0040053
:1018F0003049091F08600846006800F004000090A5
:1019000000BF00BF00BF002000902A4814380068C4
:1019100040F008002749143908600846006800F0C4
:101920000800009000BF00BF4FF44050019002201B
:1019300002900020039004900220059001A9214804
:10194000FEF7E8FF32E02049206888422ED100BF30
:10195000002000901748006840F002001549086018
:101960000846006800F00200009000BF00BF00BF02
:10197000002000900F481438006840F004000D4922
:10198000143908600846006800F00400009000BFA9
:1019900000BFC0200190022002900020039004901C
:1019A0000320059001A90948FEF7B4FF06B010BD59
:1019B0000000014044380240001002400000024094
:1019C00000080040000C02400004014000080240F2
:1019D00010B586B00446142101A8FEF7DEFC644968
:1019E0002068884239D100BF00200090614800681B
:1019F00040F001005F4908600846006800F00100FF
:101A0000009000BF00BF00BF0020009008460068A3
:101A100040F0020008600846006800F002000090F4
:101A200000BF00BF402001900220029000200390E0
:101A300004900220059001A94F48FEF76BFF032098
:101A40000190022002900020039004900220059053
:101A500001A94A48FEF75EFF87E0494920688842AD
:101A60001DD100BF002000904248006840F00100F6
:101A7000404908600846006800F00100009000BF7F
:101A800000BF0920019002200290002003900490E2
:101A90000220059001A93848FEF73CFF65E039496E
:101AA000206888421DD100BF0020009031480068A6
:101AB00040F010002F4908600846006800F0100050
:101AC000009000BF00BF6020019002200290002023
:101AD000039004900320059001A92B48FEF71AFFFC
:101AE00043E02A49206888421DD100BF00200090B1
:101AF0002048006840F002001E490860084600685F
:101B000000F00200009000BF00BF481501900220C5
:101B100002900020039004900320059001A917482B
:101B2000FEF7F8FE21E01A49206888421DD100BF67
:101B3000002000900F48006840F002000D49086046
:101B40000846006800F00200009000BF00BF4FF49C
:101B50004040019002200290002003900490092050
:101B6000059001A90548FEF7D5FE06B010BD00009E
:101B700000040040303802400000024000040240EF
:101B8000000C0040004001400010024000480140AD
:101B9000001800402DE9F04104460D461646002786
:101BA00000BF94F83C00012802D10220BDE8F0817A
:101BB000012084F83C0000BF36B1042E1BD0082E53
:101BC00031D00C2E5ED145E02946206801F030FA74
:101BD0002068806940F00800216888612068806979
:101BE00020F0040021688861206880692969084321
:101BF0002168886148E02946206800F0CDFE206811
:101C0000806940F40060216888612068806920F460
:101C100080602168886120688069296940EA012024
:101C20002168886130E02946206801F039FA20688F
:101C3000C06940F008002168C8612068C06920F0D0
:101C400004002168C8612068C069296908432168C7
:101C5000C86119E02946206801F05EFA2068C06971
:101C600040F400602168C8612068C06920F4806089
:101C70002168C8612068C069296940EA012021689B
:101C8000C86101E0012700BF00BF00BF002084F849
:101C90003C0000BF384689E710B504460CB9012066
:101CA00010BD94F83D0028B9002084F83C0020467F
:101CB00000F025F8022084F83D00211D206800F086
:101CC000EFFD012084F8460000BF84F83E000121AA
:101CD0003F200155402001554120015500BF00BF64
:101CE000012084F84200432001554420015545203D
:101CF000015500BF012084F83D000020D0E7704767
:101D0000F8B504460D46164694F8420020282DD119
:101D100005B10EB90120F8BD0120206300206063E9
:101D200032462946204600F075FE0746206B012802
:101D300019D100BF00200090206800680090206842
:101D40004068009000BF00BF00BF00BF21680C3199
:101D500051E8001F41F0100021680C3141E80002F9
:101D6000002AF3D100E001273846D4E70220D2E769
:101D700070B504460D4601200949087080210948C4
:101D8000FEF7E9FA802207490748FFF7B9FF07483D
:101D90000068006820F0080004490968086070BD08
:101DA0003800002054030020D40300201C0400202D
:101DB000704700002DE9F84F044620680568206848
:101DC000C668206847694FF00009CA4605F00F0948
:101DD000B9F1000F0AD105F0200038B106F020005B
:101DE00020B1204601F030FBBDE8F88FB9F1000FBB
:101DF0007CD007F0010018B906F49070002875D067
:101E000005F0010030B106F4807018B1606C40F04C
:101E10000100606405F0040030B107F0010018B162
:101E2000606C40F00200606405F0020030B107F021
:101E3000010018B1606C40F00400606405F0080017
:101E400048B106F0200010B907F0010018B1606C2D
:101E500040F008006064606C002846D005F0200067
:101E600028B106F0200010B1204601F0EDFA2068FC
:101E70004069C0F3801A606C00F0080010B9BAF134
:101E8000000F2DD0204601F09FFB2068406900F034
:101E90004000402820D100BF00BF2168143151E824
:101EA000001F21F040002168143141E80002002A9F
:101EB000F3D100BFE06B50B17F48E16B0865E06B88
:101EC000FEF734FB88B1E06B016D88470DE02046DA
:101ED000FFF76EFF09E009E02046FFF769FF04E025
:101EE0002046FFF765FF002060647DE7206B012836
:101EF00078D105F01000002874D006F010000028FA
:101F0000FAD000BF00200090206800680090206890
:101F10004068009000BF00BF2068406900F04000AA
:101F2000402870D1E06B006840681FFA80F8B8F173
:101F3000000F58D0A08D404555DDA4F82E80E06BF1
:101F4000C069B0F5807F43D000BF00BF21680C316D
:101F500051E8001F21F4807021680C3141E8000233
:101F6000002AF3D100BF00BF00BF2168143151E83F
:101F7000001F21F001002168143141E80002002A0D
:101F8000F3D100BF00BF00BF2168143151E8001F2A
:101F900021F040002168143141E80002002AF3D109
:101FA00000BF202084F842000020206300BF00BF53
:101FB00021680C3151E8001F21F0100021680C311C
:101FC00041E80002002AF3D100BFE06BFEF758FAA7
:101FD00002206063A08DE28D801A81B22046FFF757
:101FE000C7FE0EE052E0A08D40450AD1E06BC0690B
:101FF000B0F5807F05D102206063A18D2046FFF7F8
:10200000B7FEF1E6FFE7A08DE18D401A1FFA80F8D8
:10201000E08DD0B3B8F1000F37D000BF00BF21680A
:102020000C3151E8001F21F4907021680C3141E817
:102030000002002AF3D100BF00BF00BF21681431A5
:1020400051E8001F21F001002168143141E800022D
:10205000002AF3D100BF202084F842000020206332
:1020600000BF00BF21680C3151E8001F21F01000B3
:1020700021680C3141E80002002AF3D100BF0220A0
:10208000606341462046FFF773FEADE605F0800031
:1020900030B106F0800018B1204601F053FAA3E6F3
:1020A00005F0400030B106F0400018B1204601F0C4
:1020B0002EFB99E600BF97E62F37000810B50446BF
:1020C0000CB9012010BDA06900B100E000BF94F878
:1020D000410028B9002084F84000204600F02AF88A
:1020E000242084F841002068C06820F40050216852
:1020F000C860204601F092F82068006920F4904002
:10210000216808612068406920F02A002168486140
:102110002068C06840F400502168C86000206064F6
:10212000202084F8410084F842000020606300BF52
:10213000C8E7000010B586B00446142101A8FEF7D8
:102140002CF92F492068884258D100BF0020009008
:102150002C48006840F010002A49086008460068D2
:1021600000F01000009000BF00BF00BF00200090F2
:1021700024481438006840F00100224914390860EE
:102180000846006800F00100009000BF00BF4FF457
:10219000C060019002200290002003900320049070
:1021A0000720059001A91848FEF7B4FB1748184905
:1021B00008604FF000604860002115488160C160F0
:1021C0004FF480610161002141618161C1614FF47F
:1021D0000031016200214162FEF7DCFA08B1FEF72E
:1021E0004CF900BF0A48E063846300BF0022114637
:1021F0002520FEF717FD2520FEF700FD06B010BDD7
:102200000010014044380240000002404064024097
:102210001C04002070477047704700BFFEE70000B5
:1022200008B500BF002000900A48006840F4800014
:10223000084908600846006800F48000009000BF6C
:1022400000BF002211463A20FEF7ECFC3A20FEF7D0
:10225000D5FC08BD3038024008B500BF0020009012
:102260002C48006840F010002A49086008460068C1
:1022700000F01000009000BF00BF00BF00200090E1
:102280000846006840F0800008600846006800F0DA
:102290008000009000BF00BF00BF002000900846F3
:1022A000006840F0010008600846006800F0010086
:1022B000009000BF00BF00BF0020009008460068EB
:1022C00040F0020008600846006800F0020000903C
:1022D00000BF00BF00BF002000900846006840F02B
:1022E000080008600846006800F00800009000BF81
:1022F00000BF00BF002000900846006840F00400C6
:1023000008600846006800F00400009000BF00BFAD
:1023100008BD00003038024000B587B01C21684677
:10232000FEF73BF815481649086053204860002125
:102330001348816040F2E731C16000210161816191
:10234000FFF7C4F808B1FEF798F80D48FFF7A4FCB2
:1023500008B1FEF792F860200090002001900290F2
:102360000490002269460648FFF714FC08B1FEF706
:1023700084F80348FFF72CFB07B000BD004801407C
:10238000C402002000B58BB000200790089009908F
:102390000A901C216846FEF700F81F481F49086094
:1023A0005320486000211D48816040F2E731C16040
:1023B000002101618161FFF789F808B1FEF75DF83E
:1023C0004FF48050079007A91448FFF729F908B186
:1023D000FEF753F81148FFF75FFC08B1FEF74DF820
:1023E0006020009000200190029004900022694635
:1023F0000A48FFF7CFFB08B1FEF73FF80422694611
:102400000648FFF7C7FB08B1FEF737F80348FFF7A8
:10241000DFFA0BB000BD0000001800400C030020E4
:1024200000B58BB0242102A8FDF7B7FF0020009073
:102430000190184818490860632048600021164838
:1024400081604FF6FF71C1600021016141618161CE
:1024500001200290002003900120049000200590AC
:102460000690079001200890002009900A9002A988
:102470000948FFF75BF908B1FDF7FFFF0020009066
:10248000019069460448FEF7C7FF08B1FDF7F5FF64
:102490000BB000BD00000140CC00002000B58BB0A7
:1024A000242102A8FDF779FF0020009001904FF051
:1024B000804017490860632048600021144881600B
:1024C0004FF6FF71C160002101618161012002901E
:1024D00000200390012004900020059006900790B2
:1024E00001200890002009900A9002A90848FFF7EF
:1024F0001DF908B1FDF7C1FF002000900190694669
:102500000348FEF789FF08B1FDF7B7FF0BB000BD28
:102510001401002000B58DB0002009900A900B90A6
:102520000C90079008901C216846FDF736FF28485C
:10253000284908605320486000212648816040F205
:10254000E731C160002101618161FEF7BFFF08B181
:10255000FDF793FF4FF48050099009A91D48FFF73C
:102560005FF808B1FDF789FF1A48FFF795FB08B13E
:10257000FDF783FF00200790089007A91548FEF794
:102580004BFF08B1FDF779FF60200090002001901B
:1025900002900490002269460E48FFF7FBFA08B14A
:1025A000FDF76BFF082269460A48FFF7F3FA08B106
:1025B000FDF763FF0C2269460648FFF7EBFA08B106
:1025C000FDF75BFF0348FFF703FA0DB000BD000005
:1025D000000400405C01002000B58BB0242102A85B
:1025E000FDF7DBFE002000900190184818490860B4
:1025F000632048600021164881604FF6FF71C1607A
:1026000000210161816101200290002003900120DE
:10261000049000200590069007900120089000206B
:1026200009900A9002A90A48FFF780F808B1FDF75F
:1026300024FF00200090019069460548FEF7ECFE5B
:1026400008B1FDF71AFF0BB000BD00000008004004
:10265000A401002000B58DB0002009900A900B90D5
:102660000C90079008901C216846FDF796FE2448C0
:10267000244908605320486000212248816040F2CC
:10268000E731C160002101618161FEF71FFF08B1E0
:10269000FDF7F3FE4FF48050099009A91948FEF7A1
:1026A000BFFF08B1FDF7E9FE1648FFF7F5FA08B1DC
:1026B000FDF7E3FE00200790089007A91148FEF7F8
:1026C000ABFE08B1FDF7D9FE60200090002001901C
:1026D00002900490002269460A48FFF75BFA08B1AD
:1026E000FDF7CBFE0C2269460648FFF753FA08B106
:1026F000FDF7C3FE0348FFF76BF90DB000BD000006
:10270000000C0040EC01002000B58BB0242102A891
:10271000FDF743FE0020009001901848184908601A
:10272000632048600021164881604FF6FF71C16048
:10273000002101614161816101200290002003902C
:102740000120049000200590069007900120089039
:10275000002009900A9002A90948FEF7E7FF08B196
:10276000FDF78BFE00200090019069460448FEF7BB
:1027700053FE08B1FDF781FE0BB000BD000401401F
:102780003402002000B58BB000200790089009901B
:102790000A901C216846FDF700FE1F481F4908608B
:1027A0005320486000211D48816040F2E731C1603C
:1027B000002101618161FEF789FE08B1FDF75DFE30
:1027C0004FF48050079007A91448FEF729FF08B17D
:1027D000FDF753FE1148FFF75FFA08B1FDF74DFE14
:1027E0006020009000200190029004900022694631
:1027F0000A48FFF7CFF908B1FDF73FFE042269460A
:102800000648FFF7C7F908B1FDF737FE0348FFF7A1
:10281000DFF80BB000BD0000004001407C0200204A
:1028200010B51148114908604FF4E13048600021AB
:102830000E488160C16001610C214161002181610C
:10284000C161FFF73BFC08B1FDF717FE8022084984
:102850000648FFF755FA07480068006820F00800AE
:1028600004490968086010BD00100140D40300202D
:10287000540300201C04002000BFFEE700BFFEE759
:102880007047704710B5FEF745F910BD0348006862
:1028900040F47000014908607047000088ED00E0D6
:1028A00010B502682B4B98420ED0B0F1804F0BD080
:1028B000294B984208D0294B984205D0284B984282
:1028C00002D0284B984203D122F070024B681A4381
:1028D000204B984220D0B0F1804F1DD01E4B984223
:1028E0001AD01E4B984217D01D4B984214D01D4B46
:1028F000984211D01C4B98420ED01C4B98420BD0E2
:102900001B4B984208D01B4B984205D01A4B98425B
:1029100002D01A4B984203D122F44072CB681A437A
:1029200022F080034C6943EA04028B68C3620B689F
:102930008362084B984202D00A4B984201D10B693E
:102940000363036843F004030360012343610260EF
:1029500010BD0000000001400004004000080040DD
:10296000000C0040000401400040014000440140D0
:102970000048014000180040001C004000200040BA
:1029800030B50C46816821F47F4142EA0325254396
:102990002943816030BD000030B5026A056A25F028
:1029A000100505624368846924F4E04424F440740B
:1029B0000D6844EA052422F020028D6842EA0512DF
:1029C000124DA84200D103E0114DA84207D100BF2B
:1029D00022F08002CD6842EA051222F040020B4D3F
:1029E000A84202D00A4DA84209D123F4806323F4FF
:1029F00000634D6943EA85038D6943EA85034360BB
:102A000084614D688563026230BD000000000140B2
:102A10000004014077B581B0044615460298A062D3
:102A2000A58500206064222084F842002C48E16BD8
:102A3000C8632C48E16B08642B48E16BC864002034
:102A4000E16B086502AE32682368191D2B46E06B06
:102A5000FDF716FF38B110206064202084F8420092
:102A6000012004B070BD00BF002000902068006805
:102A7000009020684068009000BF00BF206970B1DE
:102A800000BF00BF21680C3151E8001F41F4807085
:102A900021680C3141E80002002AF3D100BF00BFD9
:102AA00000BF2168143151E8001F41F00100216886
:102AB000143141E80002002AF3D100BF00BF00BF7B
:102AC0002168143151E8001F41F0400021681431A1
:102AD00041E80002002AF3D100BF0020C1E7000056
:102AE0005B360008A5350008CD31000810B5024856
:102AF000FFF760F910BD0000D403002000BFFEE71F
:102B000000B500F019F8002007E09FED050A05491F
:102B100001EB800181ED000A401C0428F5DB00BDBB
:102B2000000048438C04002010B5024800F024FF48
:102B300010BD00003C00002004480078012800D0AF
:102B4000704700200149087000BFF9E738000020F5
:102B500000B5012309E0184600F03EF8581E04496C
:102B600001EB800080ED000A5B1C052BF3DB00BD50
:102B70007C04002070B500241EE0FDF7C5FF05466B
:102B800004EB44000F4901EB8000406804EB440172
:102B90000C4A02EB810189680844A8420AD804EB78
:102BA0004400114601EB8000856004EB440152F8BB
:102BB00021008047601CC4B2034800788442DCDBFB
:102BC00070BD000014000020100000200320014907
:102BD00008707047100000209FED631AF0EE410A64
:102BE0009FED611AB0EE410A012806D0022831D0CB
:102BF00003285CD004282CD186E05C490968496A26
:102C000001EE101AB8EE411AF0EE410A9FED581A83
:102C1000F4EEC10AF1EE10FA06D29FED561A20EE3C
:102C2000811AB0EE410A10E09FED531AF4EEC10A8A
:102C3000F1EE10FA09DD9FED511A30EEC11ADFED09
:102C40004D1A21EE211AB0EE410A0021474A1268BE
:102C5000516286E04A490968496A01EE101AB8EEE5
:102C6000411AF0EE410A9FED421AF4EEC10AF1EE6C
:102C700010FA06D29FED3F1A20EE811AB0EE410AFB
:102C800010E09FED3D1AF4EEC10AF1EE10FA09DDF5
:102C90009FED3A1A30EEC11ADFED361A21EE211AF5
:102CA000B0EE410A0021364A1268516259E03549B6
:102CB0000968496A01EE101AB8EE411AF0EE410AAD
:102CC0009FED2B1AF4EEC10AF1EE10FA06D29FED39
:102CD000291A20EE811AB0EE410A10E09FED261A63
:102CE000F4EEC10AF1EE10FA09DD9FED241A30EE80
:102CF000C11ADFED201A21EE211AB0EE410A00219F
:102D0000204A126851622CE01F490968496A01EEA5
:102D1000101AB8EE411AF0EE410A9FED151AF4EEC2
:102D2000C10AF1EE10FA06D29FED121A20EE811AB6
:102D3000B0EE410A10E09FED101AF4EEC10AF1EE78
:102D400010FA09DD9FED0D1A30EEC11ADFED091AF8
:102D500021EE211AB0EE410A00210B4A126851629D
:102D600000BF00BF7047000000000000CC00002042
:102D700000401C46B0AA2A3F00D8564700008047B2
:102D800014010020A40100203402002000B593B0FB
:102D9000302107A8FDF701FB142102A8FDF7FDFA79
:102DA00000BF002001902548006840F08050234972
:102DB00008600846006800F08050019000BF00BF26
:102DC00000BF002001901E48006840F480401C496C
:102DD00008600846006800F48040019000BF00BF12
:102DE0000220079001200A9010200B9002200D90E5
:102DF00000210E9108210F91A8211091022111911B
:102E00000421129107A8FEF79FF808B1FDF735FBE2
:102E10000F20029002200390002004904FF4A05055
:102E200005904FF480500690052102A8FDF74CFF55
:102E300008B1FDF722FB13B000BD0000403802408E
:102E400000700040B0EE401A31EE602A80ED062A94
:102E500090ED082AD0ED062A32EE222A80ED082ACB
:102E600090ED082AD0ED042AB4EEE22AF1EE10FA31
:102E700004DD90ED042A80ED082A10E090ED082A88
:102E8000D0ED042AF1EE622AB4EEE22AF1EE10FA55
:102E900005D290ED042AB1EE422A80ED082A90ED89
:102EA000062AD0ED072A72EE621A90ED002AD0EDC4
:102EB000062A22EE222AD0ED012A90ED083A02EEEF
:102EC000832AD0ED022AB0EE420A02EEA10A90ED6A
:102ED000052AB4EEC02AF1EE10FA04D290ED052ACC
:102EE000B0EE420A0EE090ED052AB1EE422AB4EEB1
:102EF000C02AF1EE10FA05DD90ED052AB1EE422A66
:102F0000B0EE420A90ED062A80ED072A704780ED68
:102F1000000AC0ED010A80ED021AC0ED041A80ED2E
:102F2000052A704730B50468246824F480240568B5
:102F30002C60046863608468402C04D10468A2603B
:102F40000468E16003E00468A1600468E26030BDE9
:102F5000014600208A6A8B69CBB932B1012A0DD0B3
:102F6000022A03D0032A10D10EE000BFCB6A03F07F
:102F70008073B3F1807F00D1012007E0CB6AB3F109
:102F8000C07F00D1012001E000E000BF34E08B6988
:102F9000B3F5005F1AD132B1012A07D0022A03D05B
:102FA000032A11D10AE000BF01200EE0CB6A03F032
:102FB0008073B3F1807F00D1012006E0CB6AB3F1CA
:102FC000C07F00D1012000E000BF15E032B1012A2E
:102FD00005D0022A04D0032A0CD103E000BF00BFB1
:102FE000012008E0CB6A03F08073B3F1807F00D149
:102FF000012000E000BF00BF7047000001460878D4
:1030000010381823B0FBF3F20848805CC865032A27
:1030100005D908686FF30900001D886503E008689A
:103020006FF309008865886D70470000323A000828
:1030300030B5026A056A25F00105056243688469B6
:1030400024F0700424F003040D682C4322F00202E3
:103050008D682A43104DA84200D103E00F4DA842CD
:1030600006D100BF22F00802CD682A4322F00402F4
:10307000094DA84202D0094DA84207D123F480731C
:1030800023F400734D692B438D692B4343608461A6
:103090004D684563026230BD0000014000040140FC
:1030A00030B5026A056A25F4807505624368C46913
:1030B00024F0700424F003040D682C4322F4007201
:1030C0008D6842EA0522124DA84200D103E0114D5D
:1030D000A84207D100BF22F40062CD6842EA05226F
:1030E00022F480620A4DA84202D00A4DA84209D1BA
:1030F00023F4805323F400534D6943EA05138D698B
:1031000043EA05134360C4614D68C563026230BD84
:10311000000001400004014030B5036A056A25F44F
:10312000805505624468C26922F4E04222F440728C
:103130000D6842EA052223F400538D6843EA053303
:10314000084DA84202D0084DA84204D124F480447E
:103150004D6944EA85144460C2614D6805640362A8
:1031600030BD000000000140000401400A468168B3
:1031700021F0700142F0070319438160704730B5B8
:103180000B461446026A056A25F00105056281694D
:1031900021F0F00141EA041122F00A021A43816190
:1031A000026230BD30B50B461446026A056A25F04E
:1031B00010050562816921F4704141EA043122F071
:1031C000A00242EA03128161026230BD70B5064678
:1031D0000025B46B20684069C0F3C01594F8410025
:1031E000212805D125B10020E084204600F022FAF4
:1031F00020684069C0F3801594F84200222805D168
:1032000025B10020E085204600F0DEF9606C40F03A
:10321000100060642046FEF7CBFD70BD2DE9F84F2D
:1032200004462068006920F44050E16808432168A2
:1032300008612169A068084361690843E16908439E
:1032400000902068C06849F20C61884300990843E7
:103250002168C8602068406920F44070A169084373
:103260002168486176492068884203D07549206802
:10327000884203D1FDF700FE814602E0FDF7ECFD38
:103280008146E069B0F5004F6CD102206168A0FB77
:10329000015003461920A9FB007001462A46384612
:1032A000FCF7E2FF6421B0FBF1F04FEA001A0220C4
:1032B0006168A0FB01510B461920A9FB00712A4649
:1032C0003846FCF7D1FF834602206168A0FB01501D
:1032D00003461920A9FB00712A463846FCF7C4FFB3
:1032E0006421B0FBF1F000EBC00101EB0010ABEB8F
:1032F0008000322101EBC0006421B0FBF1F000F04E
:10330000F8000AEB400A02206168A0FB0150034666
:103310001920A9FB007001462A463846FCF7A4FF95
:10332000834602206168A0FB015003461920A9FBD7
:1033300000712A463846FCF797FF6421B0FBF1F094
:1033400000EBC00101EB0010ABEB8000322101EB80
:10335000C0006421B0FBF1F000F007005044216888
:1033600088606AE004206168A0FB015003461920D0
:10337000A9FB007001462A463846FCF775FF8246D5
:1033800004206168A0FB015003461920A9FB0070CE
:1033900001462A463846FCF767FF6421B0FBF1F08E
:1033A00000EBC00101EB0010AAEB8000322101EB21
:1033B00000106421B0FBF1F000F0F00A0420616815
:1033C000A0FB017003461920A9FB00513A4628468C
:1033D000FCF74AFF6421B0FBF1F00AEB001A04206D
:1033E0006168A0FB01510B461920A9FB00712A4618
:1033F0003846FCF739FF834604206168A0FB015082
:1034000003461920A9FB007001462A463846FCF7FE
:103410002BFF6421B0FBF1F000EBC00101EB0010C9
:10342000ABEB8000322101EB00106421B0FBF1F026
:1034300000F00F00504421688860BDE8F88F00005C
:103440000010014000140140F8B504460025002694
:1034500094F84200222873D1A068B0F5805F0BD1A8
:10346000206948B9A66A20684068C0F30800308027
:10347000A06A801CA06214E0A56AA068B0F5805F15
:1034800003D0A06828B9206918B92068406828705E
:1034900004E02068406800F07F002870A06A401CAB
:1034A000A062E08D401E80B2E085002846D12068F1
:1034B000C06820F020002168C8602068C06820F43F
:1034C00080702168C8602068406920F00100216890
:1034D0004861202084F8420000206063206B0128AE
:1034E00026D10020206300BF00BF21680C3151E8C5
:1034F000001F21F0100021680C3141E80002002A71
:10350000F3D100BF2068006800F0100010280AD135
:1035100000BF00200090206800680090206840688C
:10352000009000BF00BFA18D2046FEF721FC02E005
:103530002046FEF76FFE0020F8BD01E00020FBE70B
:103540000220F9E7014691F84100212828D1886836
:10355000B0F5805F0BD1086948B90A6A1088C0F3DA
:1035600008000B685860086A801C086205E00B6A56
:10357000581C086218780B685860C88C401E80B2CE
:10358000C88458B90868C06820F080000B68D8600B
:103590000868C06840F040000B68D86000207047A1
:1035A0000220FCE770B50546AC6B01206063206B20
:1035B000012805D1A08D41082046FEF7D9FB02E085
:1035C0002046FEF728FE70BD00BF00BF02680C3227
:1035D00052E8002F22F4907102680C3242E8001386
:1035E000002BF3D100BF00BF00BF0268143252E8C5
:1035F000002F22F001010268143242E80013002B70
:10360000F3D100BF016B01290ED100BF00BF0268DA
:103610000C3252E8002F22F0100102680C3242E80E
:103620000013002BF3D100BF202180F842100021AD
:103630000163704700BF00BF02680C3252E8002FE0
:1036400022F0C00102680C3242E80013002BF3D1D3
:1036500000BF202180F84110704770B50546AC6B63
:103660002868006800F48070002842D1E08500BF1F
:1036700000BF21680C3151E8001F21F480702168DF
:103680000C3141E80002002AF3D100BF00BF00BFA7
:103690002168143151E8001F21F001002168143124
:1036A00041E80002002AF3D100BF00BF00BF21683B
:1036B000143151E8001F21F040002168143141E825
:1036C0000002002AF3D100BF202084F84200206BC2
:1036D00001280ED100BF00BF21680C3151E8001F46
:1036E00021F0100021680C3141E80002002AF3D1DA
:1036F00000BF00206063206B012804D1A18D20460B
:10370000FEF736FB02E02046FEF784FD70BD10B5E3
:1037100004462068C06820F040002168C86020206E
:1037200084F841002046FEF777FD002010BD70B5FB
:103730000446A56B0020E8852846FEF739FB70BDDE
:1037400010B5002804DB0A07130E054A135406E0DF
:103750000A07140E034A00F00F031B1FD45410BDB8
:1037600000E400E018ED00E002480068C0F3022029
:10377000704700000CED00E070B50546002410E035
:1037800004EBC40105EB81009FED072ADFED071A6A
:10379000B6EE001ADFED060A9FED060AFFF7B7FB4B
:1037A000641C042CECDB70BD0000FA440000C8432C
:1037B0009A99993F0000204210B50246012906D08F
:1037C000022936D0032966D0042931D195E0B5EE1F
:1037D000C00AF1EE10FA15DB0023624C2468636323
:1037E000F0EEC00AFCEEE00AF8EE600A9FED5E1A09
:1037F000C0EE811AFCEEE10A10EE900A594B1B68EC
:10380000D86315E00023574C2468E363F0EEC00A48
:10381000FCEEE00AF8EE600A9FED531AC0EE811A42
:10382000FCEEE10A10EE900A4E4B1B68586300BF95
:1038300095E0B5EEC00AF1EE10FA15DB0023494C15
:1038400024682364F0EEC00AFCEEE00AF8EE600A99
:103850009FED451AC0EE811AFCEEE10A10EE900AC7
:10386000424B1B68586315E00023404C2468636397
:10387000F0EEC00AFCEEE00AF8EE600A9FED3A1A9C
:10388000C0EE811AFCEEE10A10EE900A354B1B687F
:10389000186400BF63E0B5EEC00AF1EE10FA15DB64
:1038A0000023324C24682364F0EEC00AFCEEE00AE8
:1038B000F8EE600A9FED2C1AC0EE811AFCEEE10AC8
:1038C00010EE900A2A4B1B68586315E00023284C21
:1038D00024686363F0EEC00AFCEEE00AF8EE600ACA
:1038E0009FED211AC0EE811AFCEEE10A10EE900A5B
:1038F0001E4B1B68186400BF31E0B5EEC00AF1EE44
:1039000010FA15DB00231A4C2468A363F0EEC00AFA
:10391000FCEEE00AF8EE600A9FED131AC0EE811A81
:10392000FCEEE10A10EE900A124B1B68586315E09A
:103930000023104C24686363F0EEC00AFCEEE00A3A
:10394000F8EE600A9FED081AC0EE811AFCEEE10A5B
:1039500010EE900A064B1B68986300BF00BF00BFC3
:1039600010BD00005C010020295C0F3EEC0100202E
:103970007C020020C40200207FB50546002424E01C
:10398000134901EB840191ED001AF0EE410A11494F
:1039900001EB840191ED001AB0EE410A04EBC40181
:1039A00005EB8100FFF74EFA684600EB840080EDDE
:1039B000000A684600EB8400D0ED000AB0EE600A11
:1039C000611C2846FFF7F8FE641C042CD8DB7FBD81
:1039D0007C0400208C040020FDF7A8F8FFF7D6F93E
:1039E000FEF73AFCFEF71CFCFEF71AFDFEF756FD4B
:1039F000FEF790FDFEF7F0FDFEF72CFEFEF784FECD
:103A0000FEF7C0FEFEF788FCFEF7BCFCFEF708FFE1
:103A1000FFF7DCF80348FFF7AFFE01E0FFF7AAF875
:103A2000FCE700003C0000204FF04070E1EE100A7F
:103A30007047000610160006101600000000000077
:103A4000000001020304060708090000000001024B
:103A500003040000743A0008000000203C0000004D
:103A6000C4010008B03A00083C000020C40A00006D
:103A7000E00100080000000010000000010000004C
:103A80000024F40000000000012B000832000000B8
:103A900000000000292B00081400000000000000B6
:103AA000512B00081E000000000000000000000074
:040000050800018965
:00000001FF
